:020000040800F2
:020000020000FC
:204000003014002021410008B1520008B5520008B9520008BD520008C1520008486C0008B7
:20402000000000000000000000000000C9520008C552000800000000CD520008D1520008EC
:20404000D5520008D9520008DD520008E1520008E5520008E9520008ED520008F152000878
:20406000F5520008F9520008FD5200080153000805530008095300080D5300081153000853
:2040800015530008195300081D5300082153000825530008295300082D5300083153000830
:2040A00035530008395300083D5300084153000845530008495300080D540008115400088E
:2040C00015540008195400081D5400082154000825540008295400082D54000831540008E8
:2040E0003554000845540008495400080120704710B5094C02E002F0F3FC0C3407488442DF
:2041000008D26068A16822688142F4D1002102F0F3FCF2E710BD00BF186B0008306B00084D
:20412000024CA04730B1024CA04703E0ED400008F1400008034C4FF00000A047024C034DD0
:20414000AE462047094B0008DD6A00080D6B000810B5244C01F0D0F95FF4803001F0FAF903
:2041600001F016FA2070012828D1102001F094F8022001F087F8002001F040FA002001F0F1
:204180004DFA5FF4806001F041FA5FF4804001F055FA5FF4E0115FF4803001F00FFA0120C4
:2041A00001F018FA392001F079FA0028FAD0022001F016FA01F01CFA0828FBD101210120E4
:2041C00001F046FA0848012101F04EFA0748012101F056FA002001F02BFA0121C80501F03B
:2041E0004FFA10BD250400207D0E00000740000030B581B05FF48041480301F071F95FF46B
:20420000C06001F023F914208DF8000001208DF8010000258DF802508DF80300684601F0EE
:204220001DF9012413208DF800008DF801508DF8025020468DF80300684601F00FF91B200E
:204240008DF8000020008DF801008DF802508DF80300684601F002F91D208DF80000200058
:204260008DF801008DF802508DF80300684601F0F5F80B208DF8000020008DF801008DF8F2
:2042800002008DF80300684601F0E8F80C208DF8000020008DF801008DF802508DF803005F
:2042A000684601F0DBF828208DF8000020008DF801008DF802508DF80340684601F0CEF815
:2042C00001B030BD1C481D491D4A40F8041B1D4901601D491D4808601D4941F8042B1D4A89
:2042E00041F8082B1C4A08601C4941F8042B1C4A41F8082B002208601A481B4940F8041B3E
:204300001A4940F8081B1A4901601A495FF0333041F8040B086018485FF4905140F80C1B63
:204320005FF4407101601549000D41F8040B41F80C290860704700BF0008014080808888C0
:20434000118488888B4884880C080140FFFF0000000C014088B4B1BB8188118400100140A2
:2043600084888888001401403888333884888B887FFF000000180140040001400804014019
:2043800010B58C4C85B00020ADF800005FF48271ADF80210ADF804000221ADF806100121E0
:2043A000ADF808104902ADF80A100821ADF80C10ADF80E000720ADF810006946200001F0FD
:2043C0008BF90121200001F09FF905B010BD00001F4910B41F4B002008601F495FF4F01231
:2043E000022408601D490A601D4A13601D4B18601D4B18601D4B1C601D4B18601D4B186021
:204400001D4B1860106850F001001060086850F001000860106850F00800106010680007CB
:20442000FCD4086850F00800086008680007FCD4106850F00400106010684007FCD408681A
:2044400050F00400086008684007FCD410BC7047042801400001100004240140082801404E
:20446000082401402C2801402C24014034280140342401401028014010240140284B294A9F
:2044800070B4294C94201860284800215FF44056016001201060782244F82C2BC50344F8BA
:2044A0003859234D21601C6854F001041C60214B214C43F8041B43F8144B7F241C608407BA
:2044C0008423236045F804695FF4F8462E60256855F001052560194C082544F8045B184DFA
:2044E00044F8085B5FF4616544F81459022544F8141914490B6025600C6854F001040C6055
:204500001149072441F828490B60104B186010480260086850F00100086070BC704700BFB9
:20452000002C0140202C0140182C0140302C01402000004028000040FF010000280400402B
:204540003F1F00000004004028080040200800401808004030B5174D04000221280001F0F8
:20456000E5F80028F9D02100280001F0DBF80121280001F0DBF80028F9D0280001F0D4F87C
:20458000C0B230BD10B50B4C0221200001F0CEF80028F9D0FF21200001F0C4F80121200086
:2045A00001F0C4F80028F9D0200001F0BDF8C0B210BD00000038004003480068400544BFE5
:2045C0000020704701207047081401400249088008880028FCD1704718040020C64A30B490
:2045E000C74D02231060C5482024036004602C602B60116004602C6030BC704766492DE91A
:20460000F041BF4C654E5FF033300860644902250127086020208046C4F80080102020603B
:20462000256037600120FFF7D1FF5E4807603846FFF7CCFF37600520FFF7C8FF3946FF2014
:20464000FFF7CCFF0821F320FFF7C8FFAA48F3210160AA48810D0560C0F80080C4F80080E0
:204660002560514C3846FFF7B9FF5FF4E0612846FFF7B4FF30210320FFF7B0FF4B4908206C
:20468000FFF7ACFF00210920FFF7A8FF00210A20FFF7A4FF5FF4F2611020FFF79FFF05211E
:2046A0001120FFF79BFF00211220FFF797FF00211320FFF793FF6420FFF788FF3C491020C8
:2046C000FFF78CFF3220FFF781FF07211120FFF785FF3220FFF77AFF8C211220FFF77EFFAB
:2046E0005FF4B8511320FFF779FF1A212920FFF775FF3220FFF76AFF00213020FFF76EFF4A
:2047000021003120FFF76AFF03213220FFF766FF29023520FFF762FF5FF483713620FFF78D
:204720005DFF00213720FFF759FF21003820FFF755FF5FF482713920FFF750FF29023C2029
:20474000FFF74CFF05213D20FFF748FF00215020FFF744FFEF215120FFF740FF0021522045
:20476000FFF73CFFCA495320FFF738FF5FF427416020FFF733FF39466120FFF72FFF33217A
:204780009020FFF72BFF0B490720FFF727FF3220FFF71CFFBDE8F081041001401010014083
:2047A00000180140141001400705000002030000B01200003301000010B504002020FFF735
:2047C0000DFF21002120FFF709FF4B484C4B22212022016049480221016002601A6002600A
:2047E0001A60196010BD000010B5002104000020FFF7E2FF00204049404A401C0C602021DC
:2048000042F80419B0F5963F1160F4D310BD00002DE9F04F82B0ADF80010060090469946CB
:20482000FFF7CAFF344A002020259246494601B14146CAF800103149401C0E288B46CBF8C4
:20484000005041F8045DF1DB0B98761C007800284AD00B992648274A0978002712EB011179
:2048600008180190BDF80010F01980B2FFF7A4FF0B980078202801D021280DD10021212829
:2048800001D1042F27D000204A074A460ED5002A0CBF4246002203E0019830F81710F2E7F5
:2048A000CAF80020164ACBF8005006E002B14246CAF80020124ACBF8005015600904491452
:2048C000401C0E28E0DB7F1C3FB2082FCADB0B980078212801D1361D00E008360B98401C7D
:2048E0000B9000780028B4D102B0BDE8F08F00BFE0FDFFFF706C00080C18014014140140D6
:20490000101401402DE9F04F83B02024ADF80400ADF806100220029000208046CDF8008023
:20492000002557490298002780B231F8106056488146001D824655488346F00715D5BDF8E0
:20494000060000992630411ABDF8040089B210EB0510C01980B2FFF72FFF5FF47840CBF806
:204960000000CAF80040C9F80040F603360C03D07F1CBFB2102FDAD302986D1CADB2401C50
:2049800080B20290072DCCD30098401C80B200902628C5D33F4D002600213000FFF70CFFE0
:2049A000CBF80050CAF80040C9F80040EF213000FFF702FFCBF80050CAF80040C9F8004094
:2049C000761CB6B25FF4A0718E42E5D30326032703213800FFF7F0FECBF80050CAF8004049
:2049E000C9F80040EC213800FFF7E6FE2549CBF80050CAF80040C9F800407F1CBFB28F4236
:204A0000E6D300210846FFF7D7FE4046CBF80050CAF80040C9F80040401C80B2F028F5D399
:204A200003210846FFF7C8FE3046CBF80050CAF80040C9F80040401C80B2ED28F5D303212D
:204A40005FF49E70FFF7B8FECBF80050CAF80040C9F80040761CB6B2ED2EF5D30C480021E1
:204A6000FFF7AAFE4046CBF80050CAF80040C9F80040401C80B2F028F5D303B0BDE8F08FB7
:204A8000607200083D010000101401400C1801403F010000FFFF000030BF704720BF7047BA
:204AA00040BF7047BFF36F8F7047BFF34F8F7047BFF35F8F704701DF7047EFF31480704777
:204AC00080F31488BFF36F8F7047EFF30980704780F309887047EFF30880704780F308885F
:204AE000704772B6704762B6704771B6704761B6704780F311887047EFF31280704740BABD
:204B0000704700BA7047000010B5284CFFF720FBFFF76EFBFFF7D6FBFFF7B0FC00F068F80B
:204B200001F068FBFFF754FCFFF768FD0020FFF75BFE96216E20FFF7E5FE10B400235FF4B9
:204B4000FC6257215020FFF763FE2000143001B400235FF4FC6247216620FFF759FE144A32
:204B60002000203001B4002327210820FFF750FE104A2000443001B4002317210820FFF71D
:204B800047FE0D480D490E4A00680860016804B0914204BF40688047543410B400231F222B
:204BA00017219620FFF734FE01B0FEE7A4750008FFFF0000FF0700001CC000081801002007
:204BC0006403FAFA1D480121017070470148012101707047150100200448417819B1002112
:204BE0004170012070470020704700BF14010020F0B5124D0124FFF7DFFC08B92C70F0BD5D
:204C00002878C0B100F014F908B10020F0BD00F017F80028F9D10026002703E07F1C3FB253
:204C2000052FF2DA59486202002100F04DF90028F4D16C702E700120F0BD000014010020AE
:204C400070B5154C200000F06DF908B1FF2070BD12486F4A5FF4007103786F489D0711D5C0
:204C6000237D267AE4890125B5402E129B1C15EBD6556D12641C01269E40016074436C437F
:204C8000146006E05B0704D5E38901605B1C9B021360002070BD00BF300300202604002082
:204CA00030B55C4C394DA06898B921685FF40072280000F009F940229821280001F0B2FB3F
:204CC0005FF4E070A0604020E0602068401C20600BE0E06840229821281801F0A3FBA06808
:204CE0004038A060E0684030E0604021012001F071FD3021012001F0E5FC254960688A68F7
:204D000040386060403A8A6028B9A060E060206020480321017030BD1C4870B53D4D002435
:204D20000022184B29699B5C521C4354491C2961402AF6D3144E6A683388D21A6A60B1F5F3
:204D4000007F08D329685FF4007200F08BF82C612868401C28600E4832888168891A8160B2
:204D60005FF44051022001F0BFFC686818B109480078042804D12C610121002000F006FE5B
:204D800070BD00BF84030020820300203001002070030020800300201C4930B54A7C8B7C3D
:204DA000CC7D1B0453EA0262CB7C52EA03230A7D1A438B7D54EA0323154CD5182468AC4229
:204DC00008D22A2801D1022000E0002000F0FCFD212110E00F4C22600F4A89681268534361
:204DE0006360994210D02A2801D1022000E0002000F0EAFD2421052001F0B2FD00210120CC
:204E000000F0C4FD002030BD012030BDC4030020140400201C0100201004002081B05FF4B2
:204E2000807000900098401E0090FBD101B0704710B5FFF7A5FAAA480024810C0160FF20BB
:204E4000FFF788FB641C0A2CF9D300F0B7F90349034B0A8813400B8010BD00BF00380040A9
:204E6000C7FF0000F0B504009E481500FF26007800075EBF2A4800684143FF22182000F060
:204E800033F9C0B9FF20FFF765FBFE20FFF762FB00273DB104E014F8010B7F1CFFF75AFB90
:204EA000AF42F8D3FFF76EFBFFF76CFB00F06CF9052808BF00268A48810C0160FF20FFF736
:204EC00049FB3000F0BD0000F0B504008548FF251700007800075EBF114800684143FF22FE
:204EE000112000F001F990B9FE2000F03BF970B9002500263FB104E0FFF744FB04F8010B87
:204F0000761CBE42F8D3FFF73DFBFFF73BFB7448810C0160FF20FFF71DFB2800F0BD00002E
:204F20001004002070B584B004000026FF223146092000F0D9F8FF2590B9FE2000F012F9B2
:204F400038B90025FFF71EFB694648556D1C102DF8D3FF20FFF7FEFAFF20FFF7FBFA002513
:204F60005F48810C0160FF20FFF7F4FA9DF80000800920709DF8000010F03C0080106070BA
:204F80009DF800008007800FA0709DF80100E0709DF8020020719DF8030060719DF8040046
:204FA0000001E0809DF80500E18802090A43E2804C4A0007000F20729DF80600C10961725D
:204FC000402101408911A172202101404911E172102101400911217366738007000DE08165
:204FE00012789DF809009DF80810930727D0E2899DF8073052EA8302E281E2898B0913439B
:20500000E38111F03802D21022744907490F61744109A17410F01C018910E1748007400FBC
:2050200020759DF80A00217D51EAD011217510F07C01891061758007C00EA07509E0520754
:2050400007D5E681E28952EA0121E181E1890843E0819DF80B00A17D51EA5011A175C00696
:20506000C00EE0759DF80C00C109217610F060014911617610F01C018910A1768007000F16
:20508000E0769DF80D00E17E51EA9011E1762021014049112177667701210140A1779DF825
:2050A0000E00C109E17740210140891104F8201F2021014049116170102101400911A170FF
:2050C00010F00C018910E1708007800F20719DF80F00400860710120A071280004B070BD3A
:2050E000100C014026040020F0B582B00C0006001500292E08D1012200213720FFF7F4FF57
:20510000022801D302B0F0BD5D485FF480570760FFF784FE12480760FFF780FE56F04000C9
:205120008DF80000200E8DF80100200C8DF80200200A8DF803008DF804408DF8055000240A
:205140006846005D641CFFF705FA062CF8D30A24FFF718FA0106D5D5641EF9D1D2E700BF27
:20516000140C014030B5074D040000E06D1EFFF709FAA04201D0002DF8D10DB9FF2030BDB2
:20518000002030BDFF0F000030B50024FFF7FAF9C506ED0E052D0BD00B2D02D00D2D02D019
:2051A00003E00B2030BD0D2030BD641C412CEDD3FFF7E8F90028FBD0280030BDF0B52F4D2D
:2051C00081B000240020287095220146FFF78CFF012843D1284E5FF47A7087225FF4D57111
:2051E00030800820FFF780FF012829D10027FFF7C9F96946C8557F1C042FF8D3308830B162
:20520000012291072920FFF76FFF0028F6D1308820B3012200213A20FFF766FFF0B90026E4
:20522000FFF7B0F969468855761C042EF8D3042028709DF80000400610D50C2028700DE087
:2052400002202870308830B1FF2200210120FFF74BFF0028F6D1308800B92C700848810C7F
:205260000160FF20FFF776F92878002814BF0020FF2001B0F0BD00BF1804002026040020CC
:20528000100C014009490A6812F038020A600A681043086070470000044910230A689A4394
:2052A0000A600A6810430860704700000020024070470000FEE70000FEE70000FEE70000D8
:2052C000FEE7000070470000704700007047000070470000704700007047000070470000E8
:2052E0007047000070470000704700007047000070470000704700007047000070470000F6
:205300007047000070470000704700007047000070470000704700007047000070470000D5
:2053200001F01AB801F05CB87047000070470000704700007047000070470000704700005B
:2053400070470000704700002A4AF0B4002000211060294A138813B113885B1E1380274A2C
:205360009378147814B1641E14703FE01424147003B15B1E224D03242E68360501D4022164
:205380001DE0204E37683F0701D4032117E03768FF0601D4012112E037687F0601D4042122
:2053A0000DE02D68AD0501D4052108E03568AD0601D4062103E035682D0616D407215678F7
:2053C000114DB1420ED1DBB2002B0ED1042901D3032309E0022908D1D07830B90120D07060
:2053E0002C7002E01923D070297051709370F0BC704700BF10040040180400202704002059
:20540000081401400808014024040020704700007047000070470000704700007047000003
:20542000704700007047000070470000704700007047000002485FF4FC610160FFF7C2BB0B
:205440001404014070470000704700002949024A02430A60704700000000FA050100F0B4BD
:205460000A78C87858B323481B4C9310006814EB8305AC462C684F7810F4E060D0F5E06065
:20548000000A0426351A8E789207D20EFF239340AF403D000F27C74037402F4338019040BA
:2054A0000C4A65469C43034023432B60087801234111C006C00E834042F8213007E00749C9
:2054C00050110123D206D20E934041F82030F0BC704700BF00E100E000E400E080E100E04B
:2054E000034A024B0B4003431360704780FFFF1F08ED00E00CED00E0674910B4134C002019
:2055000041F8040B142241F8040B41F8042B41F8040B41F81C090A6852F001020A604B4A01
:2055200013681C4014600B68094C1C400C600B687FF480241C400C6011687FF4FE030B4006
:2055400064491360086010BC704700BF0000FFF8FFFFF6FE5C497FF480330A6813400B609D
:205560000A687FF4802313400B605FF48032904203D09200904205D07047086850F48030E7
:2055800008607047086850F4A02008607047000010B5094C312000F081F820706068401CD1
:2055A0006060207810B96068FF28F3D1312000F075F800B1012010BD68030020234A10B40E
:2055C0007FF47C1413681C4020430143116010BC7047000001490860704700BF600042424A
:2055E0001A4903230A689A4310430860704700001648006810F00C00704700001349F02369
:205600000A689A4310430860704700000F497FF4E0630A6813401843086070470B497FF4B5
:2056200060530A68134053EAC00008607047000001490860704700BFD800424203497FF493
:2056400040430A68134018430860704704100240044A002911681EBF08431060704781432F
:205660001160704714100240044A002911681EBF0843106070478143116070471810024007
:20568000044A002911681EBF0843106070478143116070471C1002400C100240410901299F
:2056A00002D10949096805E0022919BF08490968064909680122C006C00E82400A401CBF4C
:2056C00001207047002070470010024020100240241002400810024002880B8812F44152D1
:2056E00013434A881A438B881343CA881A430B8913434A891A438B891343CA891A43028057
:20570000098A0182704700000029018803D051F0400101807047024A0A400280704700BFEF
:20572000BFFF0000818170478089704700B5008908421CBF012000BD002000BD274800B5F0
:20574000017C891E0DD0491E13D0491E012919D8002101745FF4405102205DF804EB00F0AC
:20576000C3BF1D48007828280CD15DF804EB01F0FFB80121002000F009F95FF44051022077
:2057800000F0B2FF00BD0000134830B5134D0478022001F047F8688202466F48D82100F06B
:2057A00055FE287C10B1012803D008E0BDE8304016E02A2C04D1BDE8304001F0FFB8022038
:2057C00000F002F92421052001F0CAF800210220BDE83040DAE00000D30300207003002026
:2057E000784870B55A4C418A0025002231B103E0594EB65CA654521C8A42F9D362681F297C
:205800004260A268826005D0022000F0DDF825601A210EE020684F49884240F09480607B87
:2058200018B9A07B08B111280BD3022000F0CCF82421052001F094F80021012000F0A6F81F
:2058400070BDE07BAF2800F27E80DFE800F06D7C7C58797C7C7C797C797C7C7C7C7C7C7CC6
:205860005B7C7C797C7C7C7C615E7C795E7C7C7C7C677C6A7C7C707C737C7C7C7C767C7C68
:205880007C7C7C7C7C7C7C7C7C7C7C7C7C7C7C7C7C7C7C7C7C7C7C7C7C7C7C7C7C7C7C7C88
:2058A0007C7C7C797C7C7C7C647C7C7C7C7C7C7C7C7C7C7C7C7C7C7C7C7C7C7C7C7C7C7C83
:2058C0007C7C7C7C7C7C7C7C7C7C7C7C7C7C7C7C7C7C7C7C7C7C797C797C7C7C7C797C7C51
:2058E0007C7C7C7C7C7C7C7C7C7C7C7C797C7C7C7C7C7C7C7C7C797C797C7C7C7C7901F03B
:2059000025F870BD00F0AAFF70BD01F02DF870BD01F010F870BD01F013F870BD00F0B0FF46
:2059200070BD00F0D7FF70BD01F0ACF870BD01F01FF870BD01F042F870BD01F06BF870BD77
:2059400001F084F870BD022000F03EF8202170E7C4030020555342438403002010B50C0041
:205960002200982100F05EFD2100012000F032FF3021012000F0A6FE1248032101748168BC
:20598000091B81600021017310BD000030B50D4C0D220D000A49207320002160982100F0F6
:2059A00041FD0D21012000F015FF052020742DB1042020743021012000F084FE30BD00BF77
:2059C000555342537003002000B520B1012808D0022809D000BD102101205DF804EB00F02A
:2059E00071BE5FF4805105E01021012000F06AFE5FF4805102205DF804EB00F075BE000018
:205A000010B5B14C20B9012120680182002010BDA64800680068804720680A3010BD0000BD
:205A2000A9480A4A00B500681278C1788A420AD3827842B9828832B981729C4800684068C7
:205A40008047002000BD022000BD00BF1701002010B59D4C20B9012120680182002010BD2B
:205A6000924800688068804720680C3010BD00000F4A10B5944C126820689269C1784079B7
:205A8000904721688A7A22B118B9087908B9887808B1022010BD85480068C0688047206868
:205AA0004179C1722068C1780173002010BD000004040020844910B5096818B9022008822F
:205AC000002010BD204C002020800878420615D1487A810603D5217851F00201217040062A
:205AE000207808D550F0010020707048006800698047200010BD10F0FE00F5E74206520EA1
:205B0000012A04BF204610BD4006400E022818D1497920780A07120F50F00100090607D505
:205B2000594951F8221011F030011029DDD1DBE7554951F8221011F44051B1F5805FD4D194
:205B4000D2E7002010BD00BF1A0400205E4870B5006801784906490E05D1417A11F0DF01DE
:205B60004172002070BD022903D1418809B9017909B1022070BD417980220C0094430A06C9
:205B800005D5414A52F8242012F0300204E03E4A52F8242012F440523A4B1B789C42E8D29C
:205BA000002AE6D0807A0028E3D0374810EB8405080628680BD510F03000102822D1200034
:205BC00000F0CAFD3021200000F07CFD1AE010F44050B0F5805F15D12C4E5CB90C480178E0
:205BE000002000F003FE284801680E4096F44051016007E0200000F0A1FD2868064096F4FC
:205C0000405028602948006840698047002070BDB40000202C4810B58023016848790200FA
:205C20009A43030605D5184B53F8223013F0300304E0154B53F8223013F44053114C2478FA
:205C4000A24204D24C8814B90BB1897A09B9022010BD0D4911EB82010A68000604D5084803
:205C6000104090F0100003E00848104090F4805008600E48006880698047002010BD00BFEB
:205C8000BF8F000016010020005C00408FBF00000D4800B50068417A51F020014172034808
:205CA0000068C0698047002000BD000008040020054A1268538A20B98888C01A1082002068
:205CC00070470868C018704700040020F0B54E4C256835F8100FA9680A0015D0A0B1AE884B
:205CE000B04238BF06463000884707002888801B2880688880196880002000F061FD320065
:205D00000100380000F0A2FBBB4E2888302738B1B848390201800021002000F05BFD3780C8
:205D20002988AA882068914222BF03210172F0BD11B105210172F0BD062101723348344966
:205D40000022006880B241F810203780F0BD000070B52D4D08242868017846784A0628D1DF
:205D6000092E02D1FFF75CFE34E08188C278052E0AD1802A44D28278002A41D100293FD135
:205D8000807A002831D03BE0407A032E07D1012A21D101BB80061ED5FFF77AFF1AE0012E18
:205DA00019D1012A17D1B1B9800614D5FFF7CEFE10E04806400E012804D10B2E0BD1FFF7B6
:205DC00057FE07E0022806D1012EEFD0032E02D1FFF720FF40B1854930000968496988479E
:205DE000032801D109240BE050B90848084900220068062480B241F810207F4830210180FC
:205E00002868047270BD000000040020505C004004600040754A2DE9F047C34D9046D8F8D9
:205E200000202868447803780926B1465906490E062C0ED100296DD18078012801D1D469F7
:205E400055E0022801D1146A51E0032862D1546A4DE09269C6884788002C34D1002F59D177
:205E6000022E57D10479002C54D15C4C11B9818800293CD040795906490E012908D10021B9
:205E80009047002846D12868807A002842D02EE002293FD10107090F10F07002000605D56D
:205EA000534850F8210010F0300004E0504850F8210010F44050CA4B1B7899422AD2002A8C
:205EC00028D138B313E0082C02D119BB444C0EE00A2C1FD101291DD1817AD9B1D7B90179C5
:205EE000C1B9012E16D14079904798B93D4C200010D028680026468284610020A0473046C8
:205F00002968394C0A0032F8103FA3420ED181F8089060E02868D8F800104078096988476A
:205F20000328EDD1286880F8089054E0022800D013B9082008724EE02E4C5FF440508246E9
:205F40000878000643D5C888984238BF1080D8F8000090462C3000788882B8F8000030B9D5
:205F6000097A042903D107208146102026E0B8F80460864228D304218946B04238BF064679
:205F8000D8F80810300088470700002000F00EFC01003200380000F045FA3100002000F01E
:205FA00019FCB8F800005146801BA8F80000B8F802008019A8F80200302021800E4908808D
:205FC00028684946017206E002208146D8E70320087250462080BDE8F08700BFB55A0008DC
:205FE000015A0008515A0008FFFF000004040020005C00401E040020200400201C491A4A7A
:020000040800F2
:020000020000FC
:206000001A4830B50968484C89B252F8111089B210EB41052068017A092917D029780170E4
:2060200020686978AD1CAD1C417028000088AD1CAD1C00F00DFC2168488028000088AD1CAF
:2060400000F006FC216888806888C8802068012101722068C08810B9FFF77AFE01E0FFF78A
:20606000D9FE00F07DF830BD0860004000600040505C00402C482DE9F0418046D8F8004032
:20608000207A022801D0042833D134F8101F21B9042802D10725102020E0A6888E4226D3B4
:2060A0000425B14238BF0E46A168300088470700002000F07BFB32000100380000F0B2F9DE
:2060C0003100002000F086FB20883549801B2080608880196080302002020A80314908805C
:2060E000D8F800000572D8F80000057A15E00225DAE70825062810D16078052809D120787A
:20610000400606D1E07800F04FF808480068006A80472048006880688047D8F80000057224
:2061200000F01EF8BDE8F081000400200804002030B51A4C2068007A032801D0052804D1A8
:20614000FFF7C4FD2068057A06E00825072803D110480068C068804720680572BDE83040A8
:206160000D4800B50178002000F040FB0B480068017A082906D10A495FF480520A800949BF
:2061800010220A80007A092804BF012000BD002000BD000004040020B400002000040020FA
:2061A0001E040020200400200D4970B40022097851B90BE00B4C084ED3B2521C14EB830421
:2061C00025682E40334323608A42F3D3034950F08000086070BC70478F8F00004C5C0040DC
:2061E00016010020005C004070470000FFF7A6BAFFF7CABA0448054A022101720449C061A6
:206200004262016208680047E4030020B80000208800002069482DE9F04F804668488146F6
:2062200024E0200404D5386805403D60FFF780FF3868BBF800101AEA0000CA0448BF90F4A6
:206240008050890402D590F4005080B2386039683E480840BBF80210CA0648BF90F01000D1
:20626000890602D590F0200080B23860D9F80000A8F80000000467D55348524F564E534D1D
:20628000C9F80000B8F800000007000F387000283AD1504F2E488346386810F44050ABF8E7
:2062A0000000386810F03000ABF802002948824638681AEA000090F4005038603968234814
:2062C000084090F020003860B8F80000C0060FD4386806403E60FFF7CDFE3C68A4B214F49E
:2062E000084FA5D0386805403D60FFF787FE9FE73C68A4B2200604D5386806403E60FFF7DC
:20630000B9FE20058DD5EDE7324911EB80010C68A4B2220408D50A6815400D602C4911EB01
:206320008000001F0068804720069FD53878294911EB80010A6816400E60284911EB800033
:20634000001F0068804791E7BDE8F08FBF8F00001E0400208FBF0000F0B5184C184D194EA0
:2063600026E019481B49286020880007000F307011EB80010F68BFB23A0409D50A68134B1B
:2063800013400B60124911EB8000001F0068804738060DD530780F490F4B11EB80010A68B1
:2063A00013400B600D4911EB8000001F00688047286820800004D4D4F0BD00002204002030
:2063C000445C00402B040020FF7F00008F0F00006C000020005C00400F8F0000500000203C
:2063E0000B4830B50B4C0C4D0168218021882A880A40510504D509490160094800688047A4
:20640000208829880140080448BFFFF703FF30BD445C0040220400201C040020FFFB00008A
:206420008C000020104B10B4521C13EB4101521009D044780378801C53EA042321F8023B1B
:20644000891C521EF5D110BC70470000064B521C13EB4101521005D051F8043B521E20F898
:20646000023BF9D170470000006000408A4800B50068807A40B1012000F06EF9022000F05A
:206480005DF970480021017000BD00006B486C4900B5006888421CBF0220FFF795FA00BD11
:2064A0007D480D4A30B501680C4D00248C720C490C605FF4044111800A4A11600A4900688D
:2064C00009784172FFF790FE641CAC42FADB07480521017030BD00BF1C040020A0860100C8
:2064E000445C0040405C0040237600082C0400202D4830B52D4D00240470002000F0CEF8AD
:206500005FF40071204600F0D1F82021204600F0D9F81821204600F03DF995F82C1020463C
:2065200000F064F95821204600F028F9204600F0FBF8204600F0ECF82146012000F0B6F875
:206540009821012000F01AF92021012000F0BAF82146012000F0C8F82146022000F0A6F80B
:20656000D821022000F016F995F82C10022000F03DF95FF44051022000F0B6F821460220C3
:2065800000F0A0F815F82C1F204600F02FF9204600F0BEF82046FFF707FE284828490160EE
:2065A0002848047030BD00BFEE030020880000207047000070470000374900B509680A78FC
:2065C0005206520E212A0DD1FE280BD1488848B9888838B9C888012804D10748020003D193
:2065E000022000BD022000BD88610020488200F047F8002000BD00BF81660008264900B52C
:2066000009680A785206520E212A15D1FF2813D1488888B9888878B9C88868B9012000F0BF
:206620009BF8022000F08AF8044805490160054800210170002000BD022000BDC4030020B6
:20664000555342438003002009B10220704700B1022070470149FFF72BBB00BFDC0000206C
:206660000149FFF725BB00BFE40000200A49034A0968C97812EBC101FFF71ABBEC0000204F
:2066800028B90548012100680182002070470148704700BF0C040020000400205249024AEE
:2066A00002400A60704700BFF8FF0000324A044B12EB80000268134019430160704700BF89
:2066C0008F8900002C4A12EB8000104A03681A40CB0648BF92F01002890602D592F020021A
:2066E00092B2026070470000234A12EB80000D4A03681A40CB0448BF92F48052890402D5A5
:2067000092F4005292B2026070470000BF8F0000194911EB800003490268114091F44051FB
:20672000016070478FBF00001349034A11EB800001680A40026070478F8E00000E4911EB92
:2067400080000168490405D501680A4A0A4052F48041016070470000074911EB80000168CE
:20676000490605D50168034A0A4052F040010160704700008F8F0000005C00401A4A4908E6
:206780004900126892B212EBC0002C4A42F8101070470000144A49084900126892B212EBFB
:2067A000C000274A42F81010704700000E49096889B211EBC000214951F8100080B270472C
:2067C0000949096889B211EBC0001D4951F8100080B27047044A126892B212EBC0001B4A29
:2067E00042F8101070470000505C0040154A126892B212EBC000144A12EB40003F2908D3E4
:206800004A09C90604BF521E92B2910251F4004105E04A08C90744BF521C92B29102016016
:20682000704700000749096889B211EBC000064951F810008005800D7047000000600040D8
:2068400008600040505C00400C600040046000400106090C51EA1020704700008849087CC1
:20686000C00702D50448052104E0C97C0348252928BF2421FFF772B858030020000000205F
:2068800000B5FEF7B5F968B98D48022181703A21017301210120FFF779F800205DF804EBB9
:2068A000FFF792B822490A484A680968130E0371130C4371130A8371C2710A0C42720A0A2E
:2068C0008272C1720C215DF804EBFFF747B800BF4400002010B5FEF78BF968B978480221C6
:2068E00081703A21017301210120FFF74FF80020BDE81040FFF768B80D490C484A68096860
:20690000531E1C0E04701C0C44701B0A8370521EC2700A0E02710A0C42710A0A8271C17145
:206920000821BDE81040FFF719B800BF600300201004002001480421FFF710B8240000208C
:2069400001480821FFF70AB82800002003480178132928BF12215A48FFF700B8D703002061
:20696000574A90701173704701210020FFF70EB810B5264C2078D8B92820FEF70DFAD8B110
:2069800023480078000605D502202070BDE81040FEF786B90220FFF717F84948052181708A
:2069A0002421017301210120BDE81040FEF7EEBF022808BFFEF774F910BD000010B5134C00
:2069C0002078F0B92A20FEF7E7F9F0B110480078000608D4012020705FF440510220BDE8A8
:2069E0001040FFF781BE0020FEF7EEFF3448052181702421017300210120BDE81040FEF798
:206A0000C5BF012808BFFEF787F910BD80030020D00300201A4800B5816841B9007C40076D
:206A200005D4012100205DF804EBFEF7AFBF0220FEF7CAFF22480521817024210173002159
:206A400001205DF804EBFEF7A1BF00000C4800B5816809B9002005E0007B000601D500204C
:206A600000E00220FEF7B0FF15480521817020210173002101205DF804EBFEF787BF000086
:206A8000C403002010B50E4CFEF7B2F818B90220A0703A2005E0FEF79FF860B10620A0703C
:206AA0002820207301210120FEF770FF0020BDE81040FEF789BF0121BDE81040FEF766BFD1
:206AC000300000207047000010B581B00400009469460120FFF7F6FFF9E7000000F016B8C8
:206AE00010B50300002A04E011F8014B521E03F8014BF9D110BD0000C9B20300002A02E093
:206B000003F8011B521EFBD170470000014CA64620470000C96A000815030000180100203F
:206B2000180100201801000000000020306B0008008002022000000044534F202020202016
:206B4000534420466C617368204469736B202020312E3020030000000006000000000000CD
:206B6000700000000000000A00000000000000000000000000000008000000000200000091
:206B8000ED610008E9610008E9610008E9610008E9610008E9610008E9610008E961000861
:206BA000F1610008E9610008E9610008E9610008E9610008E9610008A1640008F164000877
:206BC000B1650008B5650008B9650008FD6500084966000855660008616600086D660008C1
:206BE0000000000040000000E96100086D640008E9610008E9610008E96100088D6400083B
:206C0000E9610008E9610008E961000808760008120000001C760008200000003C76000872
:206C20000400000040760008260000006876000826000000907600081A000000AC7600080E
:206C400010000000010103015303AFAFE163000859630008F14B0008C54B0008CD4B0008DE
:206C6000654E0008C94E0008706C0008787400080000000000001C00200040004000400066
:206C80004000400020001C00000000000000000000000000000000E0001000080008000830
:206CA000300C600CC000800100033006300C000000080008001000E0000000000000000076
:206CC000102010201020102010201020F03F000000000000C00FE01F303010200000000007
:206CE0000000000010203030E01FC00F000000000000C018800D00070007800DC01800005E
:206D0000000000010001C007C007000100010000000000000000FCFF0000000000000000E6
:206D20000000000100010001000100010001000000000000000030003000000000000000ED
:206D400030006000C000800100030006000C0000E01FF03F902010231024F03FE01F0000DA
:206D6000000010081018F03FF03F1000100000007010F030902110231026303830180000EB
:206D800020103030102210221022F03FE01D000000030007000D1019F03FF03F10010000F2
:206DA000203E303E102210221023F023E0210000E00FF01F103210221022F003E0010000E4
:206DC00000300030F020F0210023003E003C0000E01DF03F102210221022F03FE01D0000A7
:206DE000001C103E102210223022E03FC01F0000000000000000600C600C0000000000009D
:206E000040004000400040004000400040004000000000018003C006600C30181010000054
:206E200040024002400240024002400240020000000010103018600CC00680030001000066
:206E4000001800380020B023B027003C00180000C00F201090279024D0275010800F000074
:206E6000F007F00F001900310019F00FF00700001020F03FF03F10221022F03FE01D0000A5
:206E8000C00FE01F3030102010203030601800001020F03FF03F10203030E01FC00F0000A0
:206EA0001020F03FF03F102210273030703800001020F03FF03F1022002700300038000084
:206EC000C00FE01F303010211021E031F0190000F03FF03F000200020002F03FF03F000046
:206EE000000000001020F03FF03F102000000000E000F00010001020F03FE03F0020000056
:206F00001020F03FF03F0003000FF03C703000001020F03FF03F10201000300030000000D7
:206F2000F03FF03F001C000E001CF03FF03F0000F03FF03F001C000E0007F03FF03F000062
:206F4000C00FE01F303010203030E01FC00F00001020F03FF03F10220022003E001C000069
:206F6000E01FF03F102070203020F83FE81F00001020F03FF03F00220023F03FF01C000087
:206F80006018703C102610221023F039E0180000000000381030F03FF03F103000380000C3
:206FA000E03FF03F100010001000F03FE03F0000803FC03F600030006000C03F803F000099
:206FC000C03FF03F7000C0017000F03FC03F00003030F03CC00F0003C00FF03C30300000FB
:206FE0000000003C103EF003F003103E003C00007038F030902110231026303C70380000A1
:207000007000900110061018100690017000000000080008000800080008000800080008DA
:207020000000000000007CFC8002800200010001100110031007F03F0027002300210000FD
:20704000002200238023F03F900310031002000010201020102010201020102010201020E1
:20706000E000F00510051005E007F003100000001020F03FE03F10021002F003E0010000B1
:20708000E003F007100410041004300620020000E001F00310061024F03FF03F10000000F6
:2070A000E003F00710051005100530072003000000001002F01FF03F102200300018000093
:2070C000C803EC0724042404FC03F807000400001020F03FF03F20020004F007F003000002
:2070E000000000001004F037F037100000000000000018001C000404FC37F837000400007C
:207100001020F03FF03F8021C003700630040000000000001020F03FF03F10000000000035
:20712000F007F0070006F0030006F007F00700000004F007F00300040004F007F003000094
:20714000E003F007100410041004F007E00300000404FC07FC0344044004C007800300005F
:207160008003C00740044404FC07FC03040400001004F007F003100600040006000300000E
:2071800000002002300790059004F0066002000000040004E01FF03F100430042000000077
:2071A000E007F00710001000E007F007100000000000C007E00730003000E007C007000027
:2071C000E007F0073000E0003000F007E007000010043006E003C001E00330061004000098
:2071E0008007C407440044004400F807F007000030067006D00490051007300630040000E5
:2072000080078004F03C1020D02FD02FD02FD02FD02FD02FD02FD02FD02FD02FD02FD02F13
:20722000D02FD02FD02FD02FD02F1020F03F000080078004F03C10201020102010201020CD
:2072400000000000000000000000000000000000000000000000000000000000000000002E
:207260000700260000FCFF00000000000000FEFF010000FFFF03000000000000FFFF0100E8
:20728000C0FFFF0F000000000080FFFF0100E0FFFF0F0000000000C0FFFF0100F0FFFF1FE9
:2072A0000000000000C0FFFF0100F8FFFD1F0000000000C0FFFF0000F8FFFC1F000000002C
:2072C0000000FC0F0000F8FFF81F000000000000FE0F0000F8FFF81F000000000000FE0775
:2072E0000000C07FFC1F00FE00000000FE070000E07FFC1F80FF013E0000FF070000E07F94
:20730000FC0FC0FF033F0000FF030000F07FFE07E0FF837F0080FF030000F03FFF03F0F770
:20732000837FF081FF030000F03FFF01F8F3C33FF881FF010000F8FF7F00FCF3C33FFCC11F
:20734000FFFF0000F8FFFF00FCF9E33FFEC1FFFF0000F8FFFF03FEF9E33FFFC1FFFF000095
:20736000FCFFFF0FFFF9E1BFFFE1FFFF0000FC8FFF0FFFF8F1DFFFE1FF7F0000FC0FFE1FA8
:20738000FFFCF0FFFFE1FF3F0000FE0FFC9FFFFCF0FFFFE17F000000FE07FC9F7F7EF0FF68
:2073A000FFF17F000000FE07F89F7F3FF8FFFEF13F000000FE07F89FFFCFFB7FFEF13F00CD
:2073C0000000FF03FC9FFFF7FB3FFEF93F000000FF03FC9FFFFCF91FFEFB1F000000FF01E2
:2073E000FC8FFFFFF80FFEFB1F000000FF01FE87FF7FF807FEFB0F000000FF00FE07FF3F99
:20740000F803FCFB07000000FF00FF03FF0FF803FCFB03000000FFC7FF00FC03F001F8F1D1
:2074200001000000F8FF7F0000000000000000000000FCFF3F00000000000000000000009B
:20744000FCFF0F0000000000000000000000FCFF030000000000000000000000F8FF00002D
:2074600000000000000000000000F03F000000000000000000000000647482909DA7AFB54B
:20748000B9B9B8B3ADA4998D80726456493C3128211B1818191D232B343F4B5764707C8732
:2074A0009199A0A4A7A7A6A39D968E857A6F64594F463D36302C2A2A2B2E32394048515A2C
:2074C000646D767E858B9093959594928E89827C746C645D554F4944403D3C3C3D3F424684
:2074E0004B51575D646A70757A7D8082838383817E7B77736E6964605B5854514F4E4D4E78
:207500004E505254575A5D6164676A6C6E707172727171706E6D6B69686664636160605FCE
:207520005F5F5F6060616162636364646464646464646464646464646464646464646464EC
:207540006464646464646464646464646464646464646464646464646473818D97A0A5A961
:20756000AAA9A7A29C948B82786E645B524B443F3B3938383A3D40454B51575E646A707589
:20758000797D7F818282807F7C7975716D6864605C58555351504F4F50515355585B5E6128
:2075A00064676A6C53797374656D20496E697469616C697A696E6700506C656173652057C9
:2075C0006169740044534F20465720436F70797269676874202863292042656E4620323020
:2075E00031302D32303132004C49422076657220332E3533000000004E6F204150502066C7
:207600006F756E64000000001201000200000040830420570001010203010000090220002E
:207620000101008032090400000208065004070581024000000705020240000004030904F2
:207640002603530054004D006900630072006F0065006C0065006300740072006F006E0004
:2076600069006300730000002603530054004D003300320020004D00610073007300200075
:20768000530074006F00720061006700650000001A033000300030003000300030003000A8
:1C76A00030003000300030003100000010035300540020004D006100730073006F
