:020000040800F2
:10C00000B44A002021C10008313601083536010844
:10C01000393601083D36010841360108BC3E0108A9
:10C020000000000000000000000000004936010888
:10C0300045360108000000004D3601085136010860
:10C0400055360108593601085D3601086136010888
:10C0500065360108693601086D3601087136010838
:10C0600075360108793601087D36010881360108E8
:10C07000F9360108FD3601080137010805370108C6
:10C08000093701080D370108113701081537010874
:10C090001D37010825370108293701082D37010808
:10C0A0003137010835370108393701083D370108B4
:10C0B0004137010845370108ED380108F13801081A
:10C0C000F5380108F9380108FD380108013901087F
:10C0D00005390108093901080D390108113901082C
:10C0E00015390108393901083D3901080120704727
:10C0F00010B5094C02E007F063FC0C340748844299
:10C1000008D26068A16822688142F4D1002107F05A
:10C1100063FCF2E710BD00BF543C01086C3C010811
:10C12000024CA04730B1024CA04703E0EDC000082C
:10C13000F1C00008034C4FF00000A047024C034D33
:10C14000AE462047712801086D390108253B0108DA
:10C15000F0B441F60007C4F2010741F20046C4F210
:10C160000106022320242025FD607361746141F2E1
:10C170000046C4F2010634613361F960746141F232
:10C180000046C4F2010634612125FD6073617461CB
:10C1900041F20046C4F2010634613361F860746113
:10C1A00041F20046C4F2010634612225FD6073614C
:10C1B000746141F20046C4F20106346133615FF0FC
:10C1C00044357D603D601020706141F20046C4F24C
:10C1D000010641F20046C4F2010641F20046C4F2F3
:10C1E000010641F20046C4F20106306141F2004608
:10C1F000C4F2010641F20046C4F2010641F20046D3
:10C20000C4F2010641F20046C4F20106706141F633
:10C210000006C4F2010641F60006C4F2010641F22E
:10C220000046C4F2010641F20046C4F20106BB68B2
:10C2300030615FF033357D603D6002202025FD6078
:10C240007061746141F20046C4F2010634613061EC
:10C25000F960746141F20046C4F20106346122259E
:10C26000FD607061746141F20046C4F20106346100
:10C27000306141F2820513EA050002D012EA05009E
:10C2800006D041F6E30503EA050343EA020305E0AD
:10C2900041F6E30502EA050243EA0203FB6074612A
:10C2A00041F20046C4F201063461F0BC7047F0B4BC
:10C2B00041F60007C4F2010741F20046C4F201064C
:10C2C000022320242025FD607361746141F2004641
:10C2D000C4F2010634613361F960746141F20046D1
:10C2E000C4F2010634612125FD607361746141F27D
:10C2F0000046C4F2010634613361F860746141F2B2
:10C300000046C4F2010634612225FD607361746148
:10C3100041F20046C4F20106346133615FF04435F6
:10C320007D603D601020706141F20046C4F201065C
:10C3300041F20046C4F2010641F20046C4F2010691
:10C3400041F20046C4F20106306141F20046C4F2F7
:10C35000010641F20046C4F2010641F20046C4F271
:10C36000010641F20046C4F20106706141F6000682
:10C37000C4F2010641F60006C4F2010641F200468D
:10C38000C4F2010641F20046C4F20106BB68306106
:10C390005FF033357D603D6002202025FD607061D7
:10C3A000746141F20046C4F2010634613061F96003
:10C3B000746141F20046C4F2010634612225FD6039
:10C3C0007061746141F20046C4F20106346130616B
:10C3D00041F6E30503EA050010403AD003EA0503FD
:10C3E00002EA0502934334D040F280051D4004D098
:10C3F0004EF2807543EA05032BE040F202051D4032
:10C4000004D040F21E7543EA050322E041F2000524
:10C410001D4004D04FF21C0543EA050319E040F229
:10C4200020051D4004D048F2307543EA050310E0B2
:10C4300040F600051D4004D04EF61C7543EA050386
:10C4400007E040F240051D4003D0424D2D8843EAED
:10C450000503FB60746141F20046C4F201063461D9
:10C46000F0BC7047F0B441F60007C4F2010741F296
:10C470000046C4F20106022320242025FD607361DA
:10C48000746141F20046C4F2010634613361F9601F
:10C49000746141F20046C4F2010634612125FD6059
:10C4A0007361746141F20046C4F201063461336184
:10C4B000F860746141F20046C4F20106346122253D
:10C4C000FD607361746141F20046C4F2010634619B
:10C4D00033615FF044357D603D601021716141F250
:10C4E0000046C4F2010641F20046C4F2010641F2E0
:10C4F0000046C4F2010641F20046C4F20106316171
:10C5000041F20046C4F2010641F20046C4F20106BF
:10C5100041F20046C4F2010641F20046C4F20106AF
:10C52000716141F60006C4F2010641F60006C4F24C
:10C53000010641F20046C4F2010641F20046C4F28F
:10C540000106B86831615FF033357D603D60F0BC55
:10C5500070470000AA1900202DE9F04783B00C00B5
:10C5600000259846030000265D701D707CB13100E7
:10C570006F4602B420000A2107F04CFB02BC761C77
:10C58000F6B278540A20B4FBF0F4002CEFD1701C02
:10C59000C0B26C46A119B04502D30D700600F6E793
:10C5A000B2421CD20D70B11AC9B26F467C18671E18
:10C5B0003F78052F09D327787F1C277005E0257069
:10C5C0006778491CC9B27F1C6770B14204D26F46BC
:10C5D0007C1827780A2FF2D2B14228BF06463000D5
:10C5E00003D169468D55761CF6B2B046701E032104
:10C5F00090FBF1F01870404607F012FBC0B2002823
:10C60000814604BF0320814620208246022E06D2A6
:10C610005978521E481C5870581880F802A0032EF2
:10C6200006D25978521E481C5870581880F802A03B
:10C63000042E02D3D2B2914505D15978481C5870C6
:10C64000581880F802A00021D2B2002A12D15878DE
:10C650001818857003B0BDE8F0876F46601C5870ED
:10C660001819B8EB01043C19641E24783034847026
:10C67000491CC9B29142EAD2494508D15C78601C94
:10C680005870B14234BF2E2020201C19A0705C7855
:10C69000B142E2D3601C5870181980F802A0E7E795
:10C6A0002DE9F04F83B00C00002500269A460300C8
:10C6B00020208046C1465D701D70002C12D52000E0
:10C6C00044422D2081460DE031006F4602B4200027
:10C6D0000A2107F0A5FA02BC761CF6B278540A20AB
:10C6E00094FBF0F4012CEFDA701CC0B26C46A11977
:10C6F000B24502D30D700600F6E7B2421CD20D70AF
:10C70000B11AC9B26F467C18671E3F78052F09D34E
:10C7100027787F1C277005E025706778491CC9B20F
:10C720007F1C6770B14204D26F467C1827780A2FAD
:10C73000F2D2B14228BF0646B246701E032190FBDA
:10C74000F1F01870504607F06BFAC0B2002883462B
:10C7500004BF03208346022E06D25978521E481C7D
:10C760005870581880F80280032E06D25978521E4D
:10C77000481C5870581880F80280042E02D3D2B298
:10C78000934505D15978481C5870581880F8028094
:10C790005978D2B2481C58705818002180F802907D
:10C7A000002A12D158781818857003B0BDE8F08FB0
:10C7B0006F46601C58701819BAEB01043C19641ECE
:10C7C000247830348470491CC9B29142EAD2594568
:10C7D00008D15C78601C5870B14234BF2E202020F4
:10C7E0001C19A0705C78B142E2D3601C5870181913
:10C7F00080F80280E7E70000821C002904D52D2084
:10C8000002F8010B0800414209B25FF47A7091FB13
:10C81000F0F000B200281EBF0346303302F8013B9F
:10C820005FF47A7300FB131000B2642190FBF1F106
:10C8300009B20B0030331370642301FB13002E2167
:10C84000517000B20A2190FBF1F109B20B003033B4
:10C8500093700A2301FB13003030D070002002F8DF
:10C86000040F7047B0B583B000220D000023841C74
:10C87000002D04D52D2004F8010B280045426F46F9
:10C8800028000A2107F0CCF9F8545B1CDBB20A201F
:10C8900095FBF0F5012D6946F1DA180008D0C818AB
:10C8A000401E00785B1EDBB2303004F8010BF4E769
:10C8B000227003B0B0BD000000B5020008005FF4B4
:10C8C0007A71884228BF481E642190FBF1F1303113
:10C8D0001170642107F0A4F980B20A2190FBF1F1F4
:10C8E000303151700A2107F09BF9303090700020F0
:10C8F00002F8030F00BD000001005FF400421000C9
:10C9000000E0104300FB00F3994238BF504052084A
:10C91000F7D180B270470000C1788278120452EAE1
:10C9200001614278007851EA022108437047000013
:10C9300001700A0A42700A0C8270090EC1707047B9
:10C94000BA482DE9F04FBC4E534D81B08046D8F81F
:10C95000000010F5DF7B814630680024C068804706
:10C9600010B92C70FF2093E02878002840F08F80C9
:10C97000002701E07F1CBFB2052F09D23368D8F829
:10C9800000005FF40072DB69002198470028F1D1B4
:10C99000052F00D3E6E79BF800004006E2D19BF8A4
:10C9A00004004106490E062901D1012004E0400699
:10C9B000400E0B28D6D10020384C04F2200A8AF809
:10C9C000010058460830FFF7A7FF33680700D8F882
:10C9D0000000DB695FF40072390098470028C1D17C
:10C9E00048460B3040780002400A8046A4F8188080
:10C9F00099F80DB048460E30A4F81AB04178007886
:10CA000050EA01269AF80100002848460CD011305F
:10CA10004178007850EA012000904846163041786D
:10CA2000007850EA012002E02430FFF775FF41460C
:10CA300042464843206199F8101006FB02728AF8BA
:10CA4000001001FB0020E260206008FB0BF0A083D7
:10CA50009AF8010018B100980009E08315E04846F3
:10CA60002C30FFF759FF628BA060A1682068891EF7
:10CA70005143228B01FB0200606048463030417810
:10CA8000007850EA012038186061012028700020E9
:10CA900001B0BDE8F08F00BFB03A0020B01900200F
:10CAA0002DE9F04F5D4C002081B02568617D804606
:10CAB0005D4800268146D9F8080049B1022802D312
:10CAC0005B49884201D3FF20A4E015EB102506E066
:10CAD0000228F8D357498842F5D215EBD015564BAA
:10CAE00052485FF400721B688246DAF80000DB6986
:10CAF000290098470028E6D105E05D465FF4007202
:10CB000098470028DFD1D9F808000090617DDAF855
:10CB10000000002900991FD00906CF0DC1194878DF
:10CB20000A7852EA002210000228CCD3404F3C4B36
:10CB3000B84201D39842C6D3009FB842C3D0C9F8C7
:10CB400008009A4201D3C34602E0206810EB122B82
:10CB50000020087048701FE04906CF0DC719380043
:10CB6000FFF7DAFE000100090228ACD3314A2D4953
:10CB7000904201D38842A6D3009A9042A3D0C9F82C
:10CB80000800884201D3C34602E0216811EBD01BA4
:10CB900000213800FFF7CCFE761CAB45B3D0002750
:10CBA0000AE061689B695FF4007207FB01519847D6
:10CBB000002888D17F1CBFB21F48227D0368DAF8A5
:10CBC00000009742EDD3DB695946002995D1617D7C
:10CBD000F9B9A16800F2E8155FF4007298470028DF
:10CBE0007FF471AF2800FFF797FE5FF0FF318842B6
:10CBF0000FD081192800FFF79BFE0F4BA168DAF8D0
:10CC000000001B685FF400729B69984700287FF45E
:10CC10005AAF002001B0BDE8F08F00BFBC19002062
:10CC2000F8FF0000F8FFFF0FD4190020583A002049
:10CC3000F0FF0000F0FFFF0F543A0020A1482DE95B
:10CC4000F04F9F4D84B000248046D8F8080005F2CC
:10CC5000200901900220C8F8080002E07F1CC8F8F3
:10CC60000870D8F80800E96899F8012012B111EBB2
:10CC7000102A01E011EBD01A9448A245834611D046
:10CC8000286954460818844201D3FF20BAE08E4B2D
:10CC9000DBF800005FF400721B682100DB69984735
:10CCA0000028F2D199F801008DF80800DBF80000A7
:10CCB000D8F8087000909DF8080040B10099380637
:10CCC000C60D88194178007850EA012007E00099E4
:10CCD0007806C60D8819FFF71FFE0001000900281D
:10CCE000BCD100989DF80810801971B1FF21017026
:10CCF00041702868E98B6A8B4018D8F80810891EA3
:10CD000051432A8B01FB02000CE07FF07041FFF7DA
:10CD10000FFED8F808106A8B2868891E51432A8BA9
:10CD200001FB0200C8F8000001984006C00D009009
:10CD300001980006C00D03900198F8B199F8010020
:10CD4000E968019A002802D011EB122A01E011EBE8
:10CD5000D21AA24512D1D8F80810DBF8002010B181
:10CD60000398101806E000981018FFF7E1FD05E0A1
:10CD7000039A801801700904090E417000260BE027
:10CD80002F699B695FF4007201FB074198470028F7
:10CD90007FF47BAF761CB6B24B4899F80020310087
:10CDA0000368DBF800009142EAD3DB69A2452CD18D
:10CDB00099F8011029BB696900F2E8145FF4007268
:10CDC000984700287FF461AF2000FFF7A5FD5FF0D2
:10CDD000FF31884204D018B1411E2000FFF7A8FDA2
:10CDE000D8F80810201DFFF7A3FD374B6969DBF861
:10CDF00000001B685FF400729B69984700287FF46D
:10CE000044AF002004B0BDE8F08F54465FF40072D8
:10CE10002100984700287FF438AF99F80120D8F80E
:10CE20000810DBF80000002AA2D1009A80189CE7C5
:10CE30002DE9F043224C234DE068AA6894F82110B4
:10CE400019B110EB1221100602E010EBD2115006BE
:10CE5000C70D1D4B1D485FF400721B688046D8F853
:10CE60000000DB69984708B1FF2027E0208B668B24
:10CE700094F821108146D8F80000C01979B14178A2
:10CE8000007850EA01201249A8608842ECD221685B
:10CE9000E28B801E7043891800FB09100CE0FFF73D
:10CEA0003BFD0C4900010009A8608842DCD22168E2
:10CEB000801E704300FB091028600020BDE8F0834D
:10CEC000B0190020D4190020543A0020583A00200C
:10CED000F0FF0000F0FFFF0F2DE9F04F86B00700D4
:10CEE00000208046C8488DF80210CDF808808146A1
:10CEF000D9F800A0CDF80480FFF722FD0026002815
:10CF000040F07E81C14883469BF8210008B1012092
:10CF10000290BF4CDBF804000B2220212060DBF8DC
:10CF20000800A06003A806F057FD380006F066FD73
:10CF300082B2390003A806F043FD03E0BBF81E10DF
:10CF40008E4274D2029800060CBF2068DBF8000005
:10CF5000B04B8119D9F800001B68E1605FF40072E2
:10CF6000DB699847002840F04B81002501981AEBB7
:10CF7000451740B9387808B1E52804D1E068019038
:10CF80002800ADF800003878002840D0E5283AD0D5
:10CF90000B2203A9380006F001FD002833D1F87AEE
:10CFA00010F00C0F40F02C81C0062CD538001A3040
:10CFB0004178007850EA01209BF82110A06069B107
:10CFC000DBF80010BBF81E20801E8918BBF81A2061
:10CFD0005043BBF8182000FB021011E01437797899
:10CFE0003A7852EA0121BBF81A2009040143DBF820
:10CFF0000000A160891E5143BBF8182001FB02000C
:10D0000020600020FDE06D1CADB2102DAED3102DC0
:10D010000DD30298761CB6B200068FD1BBF81C1057
:10D020008E428FD3FFF704FF08B900268AE79DF8E8
:10D030000200772840F0E480019840BB0298000687
:10D0400040F0DE80FFF7FAFD002840F0D980D9F8E3
:10D0500000005FF40072002106F0BEFC454601E0CE
:10D060006D1CADB2BBF81C20206895420BD2694BF9
:10D070004119D9F800001B685FF400729B6998475A
:10D080000028EDD0BCE001900020ADF80000C4F80D
:10D090000880FFF7D3FD002840F0B280D9F80000E7
:10D0A0005FF40072002106F097FC0B22202150460D
:10D0B00006F092FC2E258AF8005010208AF80B000A
:10D0C000A06851463D2601F81A0F0004000E487072
:10D0D000A06851462022000C01F8140F000A487085
:10D0E00050464A2100F8101F45214670504600F86E
:10D0F0000E1F5121417050464A2100F8121F467000
:10D10000504600F8181F45214670504600F8161F7B
:10D110005121417051465046203006F051FC504696
:10D12000414600F83A1F4170504600F8341F4170E4
:10D130008AF821500D4609E0280005D1D9F80000F1
:10D140004022002106F048FC6D1CADB23148BBF80E
:10D150001C200368D9F80000954208D221689B6919
:10D160005FF40072491998470028E5D048E001991A
:10D170005FF40072E160DB699847002840D1BDF898
:10D180000050202200211AEB4515280006F024FC4F
:10D190000B2203A9280006F013FC1E4B1020E87296
:10D1A000A06829005FF4007201F81A0F0004000E55
:10D1B0004870A0682900000C01F8140F000A48709C
:10D1C00028004A2100F8101F45214670280000F869
:10D1D0000E1F5121417028004A2100F8121F46708D
:10D1E000280000F8181F4670452005F8160F51203A
:10D1F00068701B68E168D9F800009B69984700B126
:10D20000FF2006B0BDE8F08F583A0020B01900208A
:10D21000D4190020543A00202DE9F04FD34D89B0A5
:10D22000060000208046D248ADF80C10D149824655
:10D23000DAF800008DF80020CDF8048005900C206D
:10D24000002406FB0010CC49C146029080688B4642
:10D2500020B11146FFF740FE80B181E1FFF770FB7E
:10D26000002840F07D819BF8210008B10120019049
:10D27000DBF804002860DBF80800A8600B222021FE
:10D2800006A806F0A9FB02980069049006F0B6FB18
:10D290000499020006A8083006F092FB032E0AD279
:10D2A000BDF80C0038B9B548082210EBC60106A835
:10D2B00006F086FB1DE00298C768380006F09EFB6A
:10D2C00086B232003900A84F06A806F079FBBDF8F7
:10D2D0000C103800FFF7F0FA380006F08FFB020060
:10D2E000390006A88019E3E7BBF81E108C4280F0D5
:10D2F000BC80019800060CBF2868DBF80000D54B05
:10D300000119DAF800001B68E9605FF40072DB695C
:10D310009847002840F0248100260599484611EBE3
:10D32000461740B9387808B1E52804D1E868814645
:10D330003000ADF802003878002800F08480E5283D
:10D340007CD00B2206A9380006F028FB002875D1F6
:10D35000F87A10F01C0F40F003819DF80000772848
:10D3600003D1F87AC00700F1FB8038001C30FFF7CA
:10D37000D3FA686038001A304178007850EA01200A
:10D380009BF82110A86069B1DBF80010BBF81E20E3
:10D39000801E8918BBF81A205043BBF8182000FBE8
:10D3A000021012E0390014314A78097851EA02215A
:10D3B000BBF81A2009040143DBF80000A960891EAC
:10D3C0005143BBF8182001FB02002E7728609DF81E
:10D3D000000077282DD1686810B3002138001C3078
:10D3E000FFF7A6FA3800414600F81A1F41709BF873
:10D3F000210010B907F8140F7870964BE968DAF835
:10D4000000001B685FF400729B699847002840F099
:10D41000A780FFF745FB002840F0A280C5F80480F4
:10D42000C5F80880FFF70AFC002840F09980A8683A
:10D4300028610020A861C5F8148092E0761CB6B27D
:10D44000102EFFF46AAF102E0FD30198641CA4B203
:10D4500000067FF449AFBBF81C108C42FFF449AFC3
:10D46000FFF7E6FC08B9002443E79DF800007728A1
:10D4700076D14846002827D10198000670D1FFF7E1
:10D48000DDFB00286CD1DAF800005FF400720021A7
:10D4900006F0A2FA464601E0761CB6B2BBF81C20A4
:10D4A000286896420BD26B4B8119DAF800001B6892
:10D4B0005FF400729B6998470028EDD050E0E86067
:10D4C00081460020ADF80200E86848450BD0614B6A
:10D4D000DAF80000C5F80C901B685FF4007249464A
:10D4E000DB699847E0BBBDF80260202200212E775F
:10D4F000059810EB4614200006F06EFA0B2206A9E0
:10D50000200006F05DFA22004A2002F8100F2600E3
:10D510003D215170452206F80E2F512373702600CD
:10D5200006F8120F7170260006F8180F717004F8D3
:10D53000162F5FF400726370464BE968DAF800005A
:10D540001B689B69984758B9C5F80480C5F80880DE
:10D55000FFF774FB20B9A86828610020A86100E0EB
:10D56000FF2009B0BDE8F08F98190020D4190020E1
:10D57000583A0020483E0108B0190020F419002054
:10D58000CA4A2DE9B04B0C2181B0002400FB0128D0
:10D59000D8F80C0006F032FAC0B28146002083466B
:10D5A000C348722100680090D8F80800FFF794FC87
:10D5B00018B15FF0FF304AE00024BE48254B5FF40D
:10D5C000007201681B680919C160B948DB6900680D
:10D5D00098470028EDD1002523E0E5281FD0F87AF0
:10D5E00010F01C0F1BD1D8F810100322380008309F
:10D5F00006F0D4F998B9D8F80C104A46380006F06D
:10D60000CDF960B9009B0A2200214846181810EB9A
:10D61000451006F0FBF980B2834538BF83466D1C88
:10D62000ADB2102D05D2009810EB451738780028C0
:10D63000D3D1102D09D3A049641CA4B209888C420F
:10D64000BBD3FFF7F5FB0028B6D0584600B201B0B7
:10D65000BDE8B08B543A00202DE9F04F934D040003
:10D660000C2085B004FB0058D8F80C0006F0C6F971
:10D670002968684608220160696800254160002029
:10D68000814606468A488246DAF800000490B2488D
:10D6900010EBC40B594602A806F092F948468BF8E5
:10D6A0000000D8F808007221FFF716FC18B15FF0EF
:10D6B000FF3064E00026C44B7E485FF400721B68B4
:10D6C00001688919C160DAF80000DB699847002811
:10D6D000EDD100240AE0280006D1082202A9380072
:10D6E00006F05CF900B90125641CA4B2102C2DD2FF
:10D6F000049911EB4417387840B3E528F4D0F87A50
:10D7000010F01C0FF0D1D8F81010032238000830A8
:10D7100006F044F90028E7D19DF8080030B108224E
:10D7200002A9380006F03AF90128D4DB9DF8000080
:10D7300030B108226946380006F030F90028CAD511
:10D7400008223900684606F03BF9CDE7102C09D3D2
:10D750005949761CB6B209888E42ACD3FFF768FBF4
:10D760000028A7D015B900208BF800009DF8000014
:10D7700028B108226946584606F022F9012005B072
:10D78000BDE8F08F49492DE9F04F85B0002406002F
:10D790000C2006FB0018D8F80C0006F02FF968469C
:10D7A000002101604160424889460D468246DAF810
:10D7B000000008220490684810EBC60B594602A8E6
:10D7C00006F0FEF848468BF80000D8F808007221F1
:10D7D000FFF782FB18B15FF0FF3064E000257A4B61
:10D7E00034485FF400721B6801684919C160DAF8B7
:10D7F0000000DB6998470028EDD100260AE02000F0
:10D8000006D1082202A9380006F0C8F800B90124A0
:10D81000761CB6B2102E2DD2049911EB461738782B
:10D8200040B3E528F4D0F87A10F01C0FF0D1D8F806
:10D83000101003223800083006F0B0F80028E7D1B5
:10D840009DF8080030B1082202A9380006F0A6F8B9
:10D850000028D4D59DF8000030B108226946380070
:10D8600006F09CF80128CADB08223900684606F059
:10D87000A7F8CDE7102E09D30F496D1CADB209886A
:10D880008D42ACD3FFF7D4FA0028A7D014B90020FA
:10D890008BF800009DF8000028B108226946584620
:10D8A00006F08EF8012005B0BDE8F08F483E010873
:10D8B000583A0020D4190020CC190020F0B50C00F3
:10D8C0002549050011EBC506317809B9FFF7C4FEFB
:10D8D000307820B91F49200006F088F8F0BD1F49B4
:10D8E0000C2005FB0015EF68380006F087F80200F1
:10D8F0003100380006F052F8C8B9380006F07EF85A
:10D9000030180A22002106F081F881B200290ED0D9
:10D910002000FEF7D1FF200006F070F800B22E21A3
:10D92000215429692018401C06F060F8F0BD082237
:10D930003100200006F044F808202118491E09781B
:10D94000202903D1401E00B20128F6DA002121541B
:10D95000F0BD00BF743E0108F4190020483E0108E4
:10D96000F0B5CC4D184EC94F28683368F9680400EB
:10D97000DB695FF40072984708B1FF20F0BD397F82
:10D98000386914EB4114210001F81A0F0004000E4D
:10D99000487038692100000C01F8140F000A487023
:10D9A000796820001C30FEF7C3FFE07A5FF4007254
:10D9B00050F02000E0723368F96828689B69984746
:10D9C00000B1FF20F0BD0000543A002030B5AF4D4B
:10D9D000AF4C288B70B1AF482368296800689B69F9
:10D9E0005FF40072984708B1FF2030BD6868298B4A
:10D9F00040186860FFF7B4FF08B1FF2030BD206811
:10DA000040698047002030BD10B5040005F0F6FFE6
:10DA100081B22000BDE810402DE9B0438B4D0C00D1
:10DA200080469C48298B8146D9F800000A19401885
:10DA3000B2F5007F38DDD1F50077BFB2002F1EBFF1
:10DA40003A46414605F0BCFF914B288B29681B687C
:10DA5000C219D9F800002A839B6992B2984710B185
:10DA60005FF0FF3028E06868298B40181349686030
:10DA700028680988401C2860688B401C688380B235
:10DA8000884208D3FFF7DAF80028E9D1FFF768FFEA
:10DA90000028E5D16883D9F80000E21B4146C91986
:10DAA00005F08EFFE01B05E02200414605F088FFEF
:10DAB000288B0019288320B2BDE8B083CC19002040
:10DAC0002948E0B581B036210025FFF7A5FF3628AB
:10DAD00001D0FF2045E000263DE03100FEF7C2FC0A
:10DAE0001F28ADF8000007D1F02F05D3142E3CBF3E
:10DAF0004FF6FF70ADF80000BDF80000BDF8001053
:10DB0000C006C00E11F4FC618909490151EA802068
:10DB1000BDF8001050EAD120ADF80000022168469F
:10DB2000FFF77AFF0228D4D17F1CBFB238005FF420
:10DB3000A0718842D1D30D486421006848430C4944
:10DB4000B0FBF1F080B285423EBF0546C0B203F0A3
:10DB5000A7FE761CB6B2F02E01D20027E6E7FFF74B
:10DB600035FF01B0E0BD00BF7C3E0108D8190020A0
:10DB70003658020010B5040004480480FFF726FF61
:10DB800010B15FF0FF3010BD20B210BDEC190020C5
:10DB90002DE9F0472D4C80464546606989460026B0
:10DBA000C705FF0D05E0484503D2202928BF05F829
:10DBB000011B60696168884201D3002043E0354859
:10DBC0008246208B48BB2249608B0988884206D355
:10DBD000FFF72EF910B15FF0FF3034E066832C4B75
:10DBE0002168DAF800001B685FF40072DB6998476F
:10DBF0000028F0D1608B64210027401C60832068DE
:10DC0000401C20605FF400702083606948436168B5
:10DC1000B0FBF1F0C0B203F043FEDAF80010606927
:10DC20005FF40072401C6061C95D7F1CBFB2974207
:10DC300028BF26834246A81A80B20A29B3D1010020
:10DC4000B7D02E7000B2BDE8F0870000D4190020D4
:10DC5000CC19002010B504000C484168A14238BF1F
:10DC60000C46A4B2002C02D15FF0FF3010BD084B6F
:10DC7000016808481B680068DB695FF40072984718
:10DC800010B15FF0FF3010BD20B210BDD4190020DC
:10DC9000543A0020583A002010B4002138B908E066
:10DCA0000D4B234C1B680C5D5C54491C89B28142AE
:10DCB000F6D310BC7047000010B4002138B908E05A
:10DCC000054B314C1B680C5D5C54491C89B2814288
:10DCD000F6D310BC70470000583A00202DE9F041FF
:10DCE000134D0C00804605F023FC280005F02EFCA7
:10DCF0000700042811D1002601E0B61CB6B2A642E6
:10DD00000BD216EB08010A784978701952EA012102
:10DD100005F03EFC07000428EFD005F011FC042FAD
:10DD200002D05FF0FF3000E020B2BDE8F0810000DB
:10DD300000F001082DE9F041134D0C00804605F07C
:10DD4000F7FB280005F002FC0700042811D100268B
:10DD500001E0B61CB6B2A6420BD216EB08010A7857
:10DD60004978701952EA012105F012FC07000428D5
:10DD7000EFD005F0E5FB042F02D05FF0FF3000E0AC
:10DD800020B2BDE8F081000000F401081F4BF0B4A0
:10DD90000A002C49B3F90040954B90FBF1F5EDB228
:10DDA00003264AB1012C14BFAA1C2A46D2B2032A68
:10DDB00028BFFD329A741E74DF785B4A5E740026B9
:10DDC000032F0ED10400171A5F811C81C01980B285
:10DDD000904224BF4EF6FE714018D8809E61F0BC80
:10DDE00070474F00012C0BD12C0002D10024274694
:10DDF000EAE7012D01D10C00E6E73C000F00E3E764
:10DE00002C00FAD0012DF6D1F0E700BF5019002008
:10DE10000C490A4A0A4B30B41C781568601C484308
:10DE2000401B1D7880B2AC42F6D13F4A904222BFDF
:10DE30004EF6FE71401880B230BC70470C000240B4
:10DE4000B13A0020560500002DE9F04F9C4CFFF739
:10DE5000DFFF804632488146607C38B9A08B404560
:10DE60005CD2012060746420A9F800004748824613
:10DE7000BAF90C60BAF92670B81B00F0A7F805B221
:10DE8000B81900F0A3F801B2022313E0012E04D167
:10DE90001688B54206DA637401E0022E02D11288B8
:10DEA000914220DA204A401CA08380B2904228BFD1
:10DEB000A4F81CB0A08B0022934640451AD01B4A00
:10DEC000BAF90E70667C12EB4002002FDED0012EF4
:10DED00004D116888E42E5DA637401E0022EE1D1A6
:10DEE0001288AA42DEDB0121FFF750FF0D483221E4
:10DEF000018013E0B9F8001081B9217C02290DD30B
:10DF0000E17829B1042903D0BAF91E10012905D1FD
:10DF10000121FFF73BFF0348A0F800B0BDE8F08FF8
:10DF2000AA3A0020AC3A002002100000501A00204B
:10DF300070B5634C154E01002E482378A4881A0052
:10DF400030F81200611AB6F902404843A34214D0D7
:10DF50000F4DC117002355F8222005F053FE55F848
:10DF60002420002305F062FED912080D00211218AA
:10DF70004B41120B42EA035203E0C11210EB115065
:10DF80000213B6F90600101870BD00001019002029
:10DF9000F83E0108164900B50A781AB10323521E4B
:10DFA00092FBF3F2084B898853F82220081AC11714
:10DFB000002305F027FECB121A0D002380185941CB
:10DFC000000B40EA015000BD843A0020074B084A8C
:10DFD000B3F9003091881278C01A064B000333F869
:10DFE000122090FBF2F0081A704700BF16190020AB
:10DFF000041A00205C3A002010B5FFF799FF2E4963
:10E000002E4AB1F9001089184118DC2901DBDB2107
:10E0100002E01429B8BF142129482A4A438B146806
:10E0200014EB430383F80112418B126812EB410198
:10E0300001F200214A780A700421417410BD0000E9
:10E0400030B50D00FFF774FF04002800FFF770FFE4
:10E0500019491A4BB1F90020184951186118D21802
:10E060008018DC2901DBDB2102E01429B8BF142170
:10E07000DC2801DBDB2002E01428B8BF1420104AA2
:10E08000104B548B1D6815EB440404F200248842A5
:10E0900007DB2170518B1B6813EB410181F80102F2
:10E0A00006E02070508B1B6813EB400080F80112D3
:10E0B0000420507430BD000052190020C0F9FFFF49
:10E0C000041A0020583A00202DE9F04F5A4F87B02B
:10E0D000804600208246F8788946032838D0CD490A
:10E0E000AA48B1F90010401A824631E0401C7883FA
:10E0F0000298008896B18CB101B4E517DDE90123DF
:10E10000DDE90401121A8B412000290005F07AFD97
:10E110003200F31705F08AFD01BC8018FFF76CFF91
:10E12000DDE900234846002180185941CDE900016E
:10E13000DDE90023DDE905018B4206DC01DB8242DB
:10E1400003D2788B3B498842D0D3788B401C7883AC
:10E150007E8B5FF49670864268D250468019C11754
:10E160004A46002305F04EFDCDE90001F8884246FD
:10E1700000238346DDE9000105F058FD12EB0B0595
:10E180002C00DDE90001002903DB00DC01D36D1C5C
:10E1900000E0641E002C18D5388B761CB1B200F05C
:10E1A00087FBC748798B026812EB4101FF2281F897
:10E1B0000122798B006810EB410000F200204178C9
:10E1C0000170788B401C3883BFE71C4EB542A8BF56
:10E1D0002546B889854229DAB4EB0B00C1174246BF
:10E1E000002305F00FFDCDE90301B5EB0B00C117CE
:10E1F0004246002305F006FDCDE9050138891049A6
:10E200002418B442A8BF64182D18B542A8BF6D18D1
:10E210000C4830F8151010EB440002900088DDE93E
:10E2200003230C1ADDE90501861A61E707B0BDE892
:10E23000F08F00BF2B010000041A00200210000024
:10E24000FEEFFFFF501A00202DE9F04F84B080460A
:10E25000002001906E48894682469AF80300032800
:10E260000DD06C494948B1F90010401A019006E000
:10E27000FFF7C2FEBAF81A00401CAAF81A00BAF852
:10E280001A405FF4967084427BD201984A4600237C
:10E290000019C11705F0B6FCCDE90201BAF8065025
:10E2A000DDE902014246002305F0C0FCAE181DD591
:10E2B000BAF81800641CA1B200F0FAFA8048BAF863
:10E2C0001A10026812EB4101FF2281F80122BAF80C
:10E2D0001A10006810EB410000F200204178017034
:10E2E000BAF81A00401CAAF81800C3E74A48834647
:10E2F0005E4546DADDE9022348460021801859418F
:10E300004246002305F092FCBAF80C00AB18984284
:10E3100037DBBAF80800009034185C45A4BF3F48CA
:10E3200024183F48751C30F81420110010009D423D
:10E3300016DA009C2C195C45A4BF384FE419384FFD
:10E3400017EB44042788D2192788874201DA2088EE
:10E3500003E02788B942B8BF21886D1C9D42E8DBE5
:10E36000094CB4F9004034B99E42BCBF981B92FBE3
:10E37000F0F210007CE788423FF47AAFFFF760FECE
:10E3800078E704B0BDE8F08F561900206C0F00004C
:10E3900030B51F4CE078E588032815D01D4905F6F7
:10E3A0006C70B1F90010451A0EE0218940181A4925
:10E3B0008842A4BF19494018194931F81000FFF7E5
:10E3C0001BFE608B401C6083618B5FF49670814202
:10E3D0001DD2681818D5208B491C89B200F068FA44
:10E3E0003748618B026812EB4101FF2281F801225C
:10E3F000618B006810EB410000F200204178017051
:10E40000608B401C2083DCE7A1898842CDDB30BDD6
:10E41000041A00202C19002002100000FEEFFFFF5C
:10E42000501A002003002148F0B5224F0C0001785B
:10E430002148B7F902500A0030F81200D3F5805392
:10E440005843A94214D01D4EC117002356F822206C
:10E4500005F0D8FB56F82520002305F0E7FBD9127C
:10E46000080D002112184B41120B42EA035203E03F
:10E47000C11210EB11500213B7F90600B7F944109E
:10E480004018B7F942104018094940181018DC2804
:10E4900001DBDB2002E01428B8BF1420084A5FF437
:10E4A000D661126812195054F0BD00BF481A0020FE
:10E4B000F8F8FFFF101900205C3A0020F83E010830
:10E4C000583A00202DE9F04F86B000240091804694
:10E4D000CB480194814699F80200032804D08C4966
:10E4E0007748095F401A01900198009AB9F804A092
:10E4F0000019C117002305F085FB06000F004246F6
:10E50000002305F093FB12EB0A05AB46002F03DB5B
:10E5100000DC01D36D1C02E05846401E834658467D
:10E52000002803D4B9F80600834507DBCA495FF425
:10E53000D660FF22096809190A5457E08542A8BF2E
:10E54000451EBBEB0A00C1174246002305F05AFBEB
:10E55000CDE90201B5EB0A00C1174246002305F0E0
:10E5600051FBCDE90401BC48BB490068096810EBC8
:10E570004500B0F8DC0711EB4B01B1F8DC17DDE921
:10E580000223401A8246DDE90401851A00E0641C7A
:10E59000B148006810EB4B00B0F8DC079DB1514664
:10E5A00089B101B43B005046C11703B4DDE9050150
:10E5B000321A8B4103BC05F025FB2A00EB1705F04E
:10E5C00035FB01BC8018A1B2FFF72CFF0098002199
:10E5D0008019794106000F00DDE904018F4205DC56
:10E5E00001DB864202D2B4F5957FD0DD641CB4F520
:10E5F000967FFFF679AF06B0BDE8F08F2DE9F04FBA
:10E6000083B00024009480467D48894682469AF86B
:10E610000200032804D03E492948095F401A0090AF
:10E6200000984A4600230019C11705F0EBFACDE91E
:10E630000101DDE901014246BAF80450002305F06A
:10E64000F5FA8548AE180068834603D4BAF8067018
:10E65000BE4206DB5FF4D66059460919FF220A5410
:10E6600026E0DDE9010102000B0048460021801888
:10E6700059414246002305F0D9FAA9188F42B8BF84
:10E6800039461BEB4600B0F8DC07721C8A4207DAF9
:10E690001BEB4203B3F8DC37521CC0188A42F7DB8D
:10E6A0008E42BCBF891B90FBF1F0A1B2FFF7BAFE0E
:10E6B000641CB4F5967FB3DB03B0BDE8F08F0000B7
:10E6C0006C0F000070B54E4CA078A588032805D0CB
:10E6D0000F4905F66C70B1F90010451A00265E4925
:10E6E000A8190A6802D4E188884205DB5FF4D66085
:10E6F0009119FF220A5406E012EB4000B0F8DC0743
:10E70000B1B2FFF78FFE761CB6F5967FE7DB70BDE2
:10E710002C19002030B5D04C207C20B9E089A08194
:10E72000052060740CE0FFF773FB618940182049F5
:10E73000A08180B2884222BF4EF6FE714018A081AF
:10E7400030483149314B6278B1F9001050F821104E
:10E7500033F8125050F82200A5FB0023920A42EA37
:10E760008350814202D2FFF7AFFC06E0884202D21A
:10E77000FFF76AFD01E0FFF70BFE617C608B052966
:10E7800007D15FF49672904203D2114600F090F8E0
:10E7900030BDE278032A0AD1042908D35FF49671C8
:10E7A000884204D20100193189B200F081F830BDED
:10E7B0000210000010B5124CE08800B300F028F8F9
:10E7C00010481149114B6278B1F9001050F821102E
:10E7D00033F8124050F82200A4FB0023920A42EAC8
:10E7E0008350814202D2FFF76DFE06E0884202D2DA
:10E7F000FFF704FF01E0FFF765FF00F02FF810BD01
:10E80000481A00205C3F01081419002054470108F1
:10E8100010B5002000240BE08B423CBF491E89B29A
:10E82000224B0278200001F0BFF92000641CA4B242
:10E830005FF4967294420ED207490A685FF4D6617B
:10E840001018415C101910F5D66003789942E3D294
:10E85000491C89B2E4E710BD583A0020124810B5AF
:10E86000007800BB00240BE08B423CBF491E89B2FC
:10E870000E4B0278200001F053F92000641CA4B272
:10E880005FF4967294420ED266490A685FF4D661CC
:10E890001018415C101910F5D66003789942E3D244
:10E8A000491C89B2E4E710BD781800201CF0000074
:10E8B0002DE970430C0014498C4228BF4C1E050002
:10E8C000A0421FD2574EFF208046574881463068ED
:10E8D0004B4610EB450010F58B604278017828001C
:10E8E00001F062F9306810EB450080F85984306817
:10E8F00010EB450010F58B6041786D1CADB20170D6
:10E90000A542E4D3BDE870832D01000010B50400DA
:10E910000F48B0F90000A8B15FF496710020FFF72E
:10E92000C7FF3F48002124B14C4A0175C17401233F
:10E930001370027C12B1427C032A05D3816103214A
:10E94000417401E000F072F8BDE8104032E700BF0A
:10E950002E1900202DE9F046314C278BFFB17F1E88
:10E96000BFB21CE00B789D423CBF5D1EEDB253462A
:10E970002A00310001F0D4F8218BD9F800205FF48F
:10E980008B6012EB41010E54208BD9F8001011EB73
:10E99000400080F85954208B0700401C2083208BB6
:10E9A000618B884229D21F491F4A8946D9F8001035
:10E9B000924611EB400111F58B610A78FF2A04D0D1
:10E9C0004A780978534601F0EFF8208BD9F8001007
:10E9D00011EB400202F2002216785578FF2ECBD0C0
:10E9E00011EB470101F200210A78FF2ABFD04A78D3
:10E9F000B242B7D2561CF6B2B9E7607C052809D1FD
:10EA0000064800780E2808BF01F062FA00F006F907
:10EA1000002000E003206074BDE8F086811800202B
:10EA2000041A0020583A002080E7000000B500F0EA
:10EA3000D1FD5FF496710020FFF73AFF06485FF4BE
:10EA400096714183018300210175C174818103485E
:10EA50000121017000BD0000041A00205C19002093
:10EA60006A49B1F90400B1F9121080B2012907D145
:10EA70000021052804D3401E80B2491C0329F8DB7D
:10EA8000704700002DE9F0435B4C5F4D5F4F642001
:10EA900080465F4800268146B7F91E00002842D113
:10EAA000687C032845D2287C002842D1534800784E
:10EAB00008B100F09DFCFFF7D3FF6870B888A8701C
:10EAC000788828703888E870E878032808D1B7F982
:10EAD0001200012801D14A4803E05FF4967000E07B
:10EAE0004846E881287800F019FC687800F0CEFCF0
:10EAF000B7F90600C0B200F0B1FCE8786E740328E4
:10EB000003D0B7F94000012801D1002000E04148BE
:10EB1000EE80AE81A8833B480088A88000F066FDA7
:10EB2000A4F8008005E0287C18B9A87D08B102F09F
:10EB30002FFFE978687C032943D1032806D2287C7B
:10EB4000002857D0A88B0021FFF720F9687C032804
:10EB500008BFFFF7DFFD687C04284BD3FFF7FAFE00
:10EB6000688B192809D3208838B9A87D08B102F02C
:10EB70000FFF00F053F8A4F80080688B5FF49671E3
:10EB8000884237D3287C012802D0287C022831D142
:10EB9000E889A881A87D08B102F0FAFEB7F91E0045
:10EBA00060B9A88BE9894018A88380B2484522BF84
:10EBB0004EF6FE714018A8836E741BE000F00AFD4B
:10EBC00018E0032803D2287CA0B1FFF73DF9687C48
:10EBD000032808BFFFF79EFD687C04280AD320881D
:10EBE00040B9FFF7B7FEE878022803D10A490120AF
:10EBF000F8830870BDE8F083A43A0020A41900202F
:10EC0000B80B0000A8190020041A002010190020D9
:10EC10000210000056050000581900202DE9F04DA3
:10EC20008DB000208DF804008046B948CDF82480CE
:10EC3000CDF820808246BAF90C50BAF92660CDF89A
:10EC40001C80CDF81880CDF80880701BFFF7BEF946
:10EC500080B203907019AF4DFFF7B8F9AA8901246B
:10EC600080B20021ADF80620AA89F2B9A8885FF425
:10EC70008051884204BF00208DF80400A6489DF80A
:10EC800004108346687D88421EBF697501208BF899
:10EC90000100079800040CBF0020012078E0079ACB
:10ECA000521C92B20792491C89B2BDF806309942B3
:10ECB000DCD22B89994ECB189BB2B34222BF4EF6C1
:10ECC000FE729B189BB2964A12EB4302079B1B04F1
:10ECD00017D1099B16889B1909930B0003D1138840
:10ECE000049305930DE0049B16889BB2B3421388EE
:10ECF00001D2049305E0059EB6B2B3423CBF13882F
:10ED0000059313881BB11388864EB34202D10123A9
:10ED10008DF80430089B009E5B18B6B29B1B0A93CB
:10ED2000069BBAF90E605B1C9BB2A6B9012C0CD1F4
:10ED3000039E1788B6B2BE42B5D2029E02243604A4
:10ED400005D006930A9B089301E0022C17D1128884
:10ED50009042A8D315E0012C0AD116888642A2D28F
:10ED6000029E0224360405D006930A9B089301E014
:10ED7000022C04D11288039B9BB29A42E9E7032C30
:10ED800091D1029B012400911B0488D102918AE752
:10ED9000E874E87C002800F0A7802B89029A002400
:10EDA000ADF80630009E2046414693B2B6B2B3425B
:10EDB0002DD2BDF80660594F93199BB2BB4222BFBA
:10EDC0004EF6FE769B199BB2554E16EB43031E88FA
:10EDD000029F891996B2BFB2BE4203D11B88049329
:10EDE00005930EE0049E1F88B6B2BE4202D21B8875
:10EDF000049306E01E88059FBFB2BE423CBF1B883D
:10EE00000593009E521C92B2B6B2B242D1D3009A80
:10EE1000029B92B29BB2D61A91FBF6F10391029932
:10EE2000009B8AB29BB29A4222D2BDF806303B4F79
:10EE3000CB189BB2BB4222BF4EF6FE729B189BB210
:10EE4000374A12EB4302039B1788BB42A4BF641CE2
:10EE5000A4B21288491C89B29A1A130053439A101B
:10EE600013EB5272009B10EBE2009BB29942DCD391
:10EE7000B0FBF6F0C000FDF73FFDA44A070007987D
:10EE800000210B4680B204F0BDFECDE90B0168788D
:10EE9000052802D2DDE90B010DE09F49002351F85E
:10EEA00020005FF47A71B0FBF1F2DDE90B0104F0B0
:10EEB000C7FE100019003200F31704F0C1FEBAF9C2
:10EEC0000E002A62012804D100980299401A041BFE
:10EED000A4B28F48444394FBF6F06862A888C01B34
:10EEE000FFF758F8A86204E00998A98990FBF1F0AF
:10EEF0000390069880B2E8620699090419D008992F
:10EF000091FBF0F0697805290ED25FF47A710EE07A
:10EF100010190020041A00205819002002100000C7
:10EF2000501A0020FF0F00007B4A52F8211048437E
:10EF30002863049EB6B23000FFF72CF8A863059C46
:10EF4000A4B22000FFF726F8A96BE863401A6863B3
:10EF50000398FFF71FF82864012028758BF8040038
:10EF6000BAF90000042840F0C9803000FEF7E0FF45
:10EF700006002000FEF7DCFFBAF90640861B039866
:10EF8000FEF7D6FF07001A2F11DBBAF92600B91DCC
:10EF9000814202DBB91F884209DA02F011F8380019
:10EFA000AAF8260001208BF813008BF814000699AC
:10EFB000BAF9040009040AD1192E32DB0E2830DA1E
:10EFC000401CAAF8040001208BF8020027E05249F7
:10EFD00011EB80010091009A296B1268B1FBF2F2EB
:10EFE00092B2652A09D30E281BDA009A5268B1FB47
:10EFF000F2F189B2332914D3E2E7322A11D201287F
:10F000000FDB009A121F1268B1FBF2F189B264297A
:10F0100007D2401EAAF8040001208BF80200FFF777
:10F02000C9FBBAF90200BAF91010B9B9642E0ADAAC
:10F0300001281CDB401EAAF8020001208BF8010009
:10F04000FFF7B8FB13E0B02E11DB09280FDA401CE4
:10F05000AAF8020001208BF80100F1E7642E02DA21
:10F060000B2804DBE6E7B02E01DB1228EFDB9BF870
:10F070000100C0B99BF80200A8B99BF8130090B931
:10F080006F2F01DB822F0EDB7820C01B052190FB48
:10F09000F1F000FB014424B2142C01DA142402E044
:10F0A000DC2CA8BFDB24BAF90600844226D0E97D17
:10F0B000491CE975C9B2052920D3BAF94230174A6B
:10F0C0000021C018134BE9750121C01880B200F06F
:10F0D0004DFE01F075FFBAF92600BAF90610AAF83C
:10F0E00006400019401AAAF8260001208BF80300F8
:10F0F0008BF813008BF81400FFF75CFBA87D08B1B8
:10F1000002F046FC0DB0BDE8F08D00BF00CA9A3B8E
:10F11000A0860100C0F900005C3F010880E7000004
:10F120002DE9F04785B001210D200026B04602F000
:10F130003BFF75488146B9F8061001A8FDF792FB20
:10F1400001A8801CFEF760FC02210D2002F02CFFBC
:10F1500001210E2002F028FFB9F80C1001A8FDF7DC
:10F1600081FB01A8801CFEF74FFC02210E2002F05B
:10F170001BFF01210F2002F017FF99F801700920F1
:10F18000002397FBF0F0C0B282466048042204B42A
:10F1900008B4B9F80C2030F81730A2FB03010400C2
:10F1A0000D003800092104F03BFD5949C0B2334637
:10F1B00051F820202000290004F024FD08BC04BCE4
:10F1C000800A40EA815101A8FDF7C6F901A8801C18
:10F1D00002F010FF03205146401A9DF80410401A17
:10F1E00003214843C0B200280BD0444A6946136843
:10F1F0000B609DF8021008188DF802006846FEF7B3
:10F2000003FC02210F2002F0CFFE0221022002F0B7
:10F21000CBFEB9F80C0028BB05B0BDE8F087384933
:10F2200068460A6802609DF8020000198DF8020025
:10F230006846FEF7E9FB0221122002F0B5FE02212A
:10F24000102002F0B1FE64204743B9F80C0097FB90
:10F25000F0F080B280453EBF8046C0B202F020FB95
:10F26000761CB6B2B9F80C108E42D5D2B9F8081097
:10F2700074182849A4B28C4222BF4EF6FE7024189E
:10F28000A4B20121102002F08FFE0121112002F012
:10F290008BFE3700390001A8FDF7E4FA01A8801CB5
:10F2A000FEF7B2FB0221112002F07EFE01211220A6
:10F2B00002F07AFE184830F81400FEF76BFE0500E5
:10F2C00099F8000004282CBF0623032304222900F8
:10F2D00001A8FDF7E5F99DF804100220441A032067
:10F2E000444364B201A8801C02F084FE002DA2D029
:10F2F000002CA0D093D503A09BE700BFB43E01082B
:10F30000B83E010865330000041A00205447010884
:10F310005C3F010802100000501A00202DE9F003A4
:10F3200018B1401E032190FBF1F02549C0B20A78C4
:10F33000824242D0234D0870097823480222904629
:10F34000224A10239946224B2024012605292ED833
:10F35000DFE801F0030A11181F262E601C60C3F8B5
:10F360000090C5F8008028E02E601C60C3F8009073
:10F37000C0F8008021E006601C60C3F80090C0F86F
:10F3800000801AE02E601460C3F80090C0F800807E
:10F3900013E006601460C3F80090C0F800800CE031
:10F3A0002E601C60C2F80090C0F8008005E0066086
:10F3B0001460C2F80090C0F80080BDE8F003704708
:10F3C000AC190020100C0140140C01401410014035
:10F3D000101001405548016851F4800140F80819A7
:10F3E00001688907FCD54C30006880B27047000086
:10F3F000F0B54E4C0025002620682F4650F46020C2
:10F400002060FF20FFF78AFFFFF7E4FFFFF7E2FF2E
:10F4100004E0FFF7DFFF3F18761CB6B2A10D8E4265
:10F42000F7D30C4E380A0027B0800B48405FC0B2BB
:10F43000FFF774FF03E0FFF7CDFF7F1CBFB2802F03
:10F44000F9D320687FF46021014021603570FA20F3
:10F450007080F0BDA41900201219002009494A78D3
:10F4600082420ED0084A4870DC23181A0002C823D2
:10F4700090FBF3F0401E1060106800018880192096
:10F4800048807047A4190020400000401F4930B454
:10F490000A78824238D008701D497FF001040A685A
:10F4A00022400A60214A136823401360A44B1D6860
:10F4B0002C401C60174C012544F80859382525605C
:10F4C000154D002445F8204B2C60144D144C35F894
:10F4D00010506D1E2560134C34F81000124C451E60
:10F4E000400844F8085B2060186850F0010018607C
:10F4F000186850F001001860106850F001001060AA
:10F50000086850F00100086030BC7047AD19002059
:10F51000002C0140202C0140042C0140FC46010835
:10F52000282C0140284701082C2C014008240140C8
:10F53000224B2DE9F0010122B3FBF0F4B4F1011FDD
:10F5400002D209E0521C92B2140093FBF4F4B4FB13
:10F55000F0F4B4F1011FF5D293FBF2F3B3FBF0F337
:10F5600078489BB2007808B16420411A144C64209A
:10F57000521E2568594391FBF0F0124980B25B1E80
:10F580009846114BAA4205D11D68A84502D10E68C4
:10F59000B0420FD00D4D01272E68BE432E600C4E99
:10F5A000002737602260C3F800800860286850F0A8
:10F5B00001002860BDE8F001704700BF00A24A04C6
:10F5C00028080040340800402C0800400008004093
:10F5D00024080040034900200860154908700249CA
:10F5E0000870704708000240151A002000B5FFF7A8
:10F5F000F1FF0948002101700D4801210170074801
:10F60000074940F8041B074940F80819064940F823
:10F6100004190649016000BDB13A00201000024003
:10F620004C240140501A002056050000833500008C
:10F63000141A002003480068400544BF00207047AA
:10F64000012070470814014002494880488800287A
:10F65000FCD17047A63A002038482DE9F003324F1C
:10F660007FF001018046D8F800000840C8F800008B
:10F670003348050D02681140324A01603D600121A6
:10F6800051805388002BFCD1284B01261C68A40A0A
:10F690002640274CB146256051805588002DFCD16D
:10F6A0001D68AE0A01253540A94508BF1170214DDE
:10F6B0002E6856F004062E6002263E605180578860
:10F6C000002FFCD11F6826605180BF07BF0F5188F3
:10F6D0000029FCD119688907890F3A0001D0032F4E
:10F6E00007D10A0001D0032903D12968F0229143F0
:10F6F000296029680F22914329600F49066007227B
:10F7000041F8242B41F834690A68B2430A60016861
:10F7100051F001010160D8F8000050F00100C8F874
:10F720000000BDE8F00370471408014008080140DC
:10F730001008014000080140102801400824014041
:10F7400008280140A63A00206C4A30B4284D022314
:10F7500010606B482024036004602C602B601160F3
:10F7600004602C6030BC7047F0B5040050200D00E0
:10F7700016001F00B1B2FFF7E7FFB9B25120FFF743
:10F78000E3FFA1B25220FFF7DFFFA9B25320FFF73A
:10F79000DBFFB1B22020FFF7D7FFA1B22120FFF796
:10F7A000D3FF5648124B22212022016054480221E7
:10F7B000016002601A6002601A601960F0BD00000A
:10F7C00010B504002020FFF7BFFF21002120FFF724
:10F7D000BBFF4A48064B22212022016048480221F3
:10F7E000016002601A6002601A60196010BD0000BA
:10F7F0001014014010B50D4C13235FF4A07210B427
:10F800000021002000F016FC10B4CA231322114678
:10F810005FF4977000F00EFC10B413235FF4A07235
:10F82000DD21002000F006FC03B010BD0C630000D9
:10F830001A482DE9F041B74EB0F900003E221425D8
:10F8400012EAC0014207520F490851EA022151EA67
:10F85000403050F04004A4B21AE0B048012780467E
:10F8600029003800FCF7FEFD318888420AD12900C2
:10F870003800FFF7A5FF214821490460202041F806
:10F88000040908607F1CBFB24745E9D36D1CADB2C7
:10F89000DC2DE2D33480BDE8F08100BF46190020A2
:10F8A0002DE9F0470C00BDF824101D008046BDF87E
:10F8B0002000591889464D451DDA161892465746BC
:10F8C000B74214DA29003800FCF7CCFD40450AD1D4
:10F8D00029003800FFF774FF084809490460202018
:10F8E00041F8040908607F1CBFB2B742EADB6D1C17
:10F8F000ADB24D45E3DBBDE8F08700000C180140D8
:10F90000141401402DE9F04F002001B4CA235FF424
:10F910009772132100F08EFB012501B020241421E1
:10F920002800FFF74DFF7A48DB2180467948814661
:10F93000B9F80000C8F8000077488246001F8346E7
:10F94000CAF80040CBF800402800FFF739FFB9F8AB
:10F9500000000521C8F80000681E04F061F9CAF82B
:10F960000040CBF8004028BB012D23D05FF49671F6
:10F970008D421FD001263100143189B22800FFF7D3
:10F980001FFFB9F80000C8F80000CAF80040CBF823
:10F990000040DB20811B89B22800FFF711FFB9F876
:10F9A0000000761C032EC8F80000CAF80040CBF80F
:10F9B0000040E0DB59496D1CADB28D42AFD3152537
:10F9C00040E029000120FFF7FBFEB9F80000290004
:10F9D000C8F80000CAF80040CBF800405FF4967009
:10F9E000FFF7EEFEB9F800000521C8F80000280076
:10F9F000143804F015F9CAF80040CBF80040F8B903
:10FA000001262900701C80B2FFF7DAFEB9F8000069
:10FA10002900C8F80000CAF80040CBF800403000C8
:10FA2000D0F5967080B2FFF7CBFEB9F80000761CD7
:10FA3000032EC8F80000CAF80040CBF80040E0DB15
:10FA40006D1CADB2DB2DBCD32D2701E01937BFB241
:10FA5000C42F28D206250DE039002800FFF7B0FE9C
:10FA6000B9F80000C8F80000CAF80040CBF8004020
:10FA70006D1DADB224498D42E8D2782FECD15FF0F4
:10FA8000FF36B91989B22800FFF79AFEB9F80000CD
:10FA9000761C36B2C8F80000CAF80040CBF8004027
:10FAA000022EE5DAEDE71A2510E03900FFF788FEAF
:10FAB000B9F80000C8F80000CAF80040CBF80040D0
:10FAC0007F1DBFB2D82F05D31935ADB20F498D4276
:10FAD00017D2192728009728E7D15FF0FF363900A1
:10FAE000A81980B2FFF76CFEB9F80000761C36B298
:10FAF000C8F80000CAF80040CBF80040022EDFDA58
:10FB0000EDE7BDE8F08F00BF2901000015010000FE
:10FB10000C180140AA190020141401402D01000006
:10FB20002DE9F04398461400050000208146FF2986
:10FB300008BF2146FF2C08BF0C46FF2932D08C425B
:10FB40003EBF20460C460146DB2C28BFDA2489B292
:10FB5000152938BF1521844E6D1C707A50B1B6F945
:10FB60000000ADB2854205DB3379C0188542BCBFC9
:10FB7000012081460F00B8B2844213D3484640B1F9
:10FB8000B6F90200B9B2814203DB72798018814272
:10FB900004DB4246B9B2A8B2FCF7DAFA7F1CBFB266
:10FBA000BC42EBD2BDE8F0832DE9F0439846140047
:10FBB000050000208146FF2908BF2146FF2C08BF11
:10FBC0000C46FF2932D08C423EBF20460C460146EF
:10FBD000DB2C28BFDA2489B2152938BF1521624EE3
:10FBE0006D1C707A50B1B6F90000ADB2854205DBEC
:10FBF0003379C0188542BCBF012081460F00B8B2DE
:10FC0000844213D3484640B1B6F90200B9B28142EA
:10FC100003DB72798018814204DB4246B9B2A8B294
:10FC2000FCF745FB7F1CBFB2BC42EBD2BDE8F083C2
:10FC30002DE9F043884604000025142C91462BD36F
:10FC4000DC2C29D2484E707A40B1B6F902008442C9
:10FC500004DB727980188442B8BF0125032705E0D0
:10FC600021003800FCF723FBBF1CBFB25FF4967184
:10FC70008F4211D23DB1B6F90000874203DB3279E1
:10FC800080188742F0DB404600284A46E8D1210030
:10FC90003800FCF75DFAE7E7BDE8F0832DE9F043B3
:10FCA000884604000025142C91462BD3DC2C29D245
:10FCB0002D4E707A40B1B6F90200844204DB7279AD
:10FCC00080188442B8BF0125062705E021003800CE
:10FCD000FCF7EDFA7F1DBFB25FF496718F4211D22F
:10FCE0003DB1B6F90000874203DB327980188742C4
:10FCF000F0DB404600284A46E8D121003800FCF7F6
:10FD000027FAE7E7BDE8F0832DE9F043164E04003B
:10FD10000025707A8846914638B1705F844204DBD2
:10FD2000327980188442B8BF0125172705E03900D1
:10FD30002000FCF7BCFAFF1CBFB2DB2F11D23DB193
:10FD4000B6F90200874203DB727980188742F2DB42
:10FD5000404600284A46EAD139002000FCF7F8F96D
:10FD6000E9E7BDE8F08300006C1800202DE9F041C0
:10FD7000884604001500142C3CD3DC2C3AD2002613
:10FD800018E097F901002A00211897F9000089B2BC
:10FD9000401C80B2FCF78BFA97F901002A00211A67
:10FDA00097F9000089B2D0F5967080B2FCF77FFA1F
:10FDB000761CB6B2092E1DD23049404611EB4607DB
:10FDC0000028DED197F901002A00211897F90000D8
:10FDD00089B2401C80B2FCF7BBF997F901002A00F8
:10FDE000211A97F9000089B2D0F5967080B2FCF71D
:10FDF000AFF9DDE7BDE8F0812DE9F0418846040068
:10FE00001500002618E097F9001097F901002A0064
:10FE1000143189B2201880B2FCF749FA97F9001022
:10FE2000DB202A00411A97F9010089B2201A80B21A
:10FE3000FCF73DFA761CB6B2092E1CD20F4940469B
:10FE400011EB46070028DED1395697F901002A0048
:10FE5000143189B2201880B2FCF77AF997F90010B2
:10FE6000DB202A00411A97F9010089B2201A80B2DA
:10FE7000FCF76EF9DEE7BDE8F0810000C43E010842
:10FE800070B5694D03246A4E1621A0B23200FCF70A
:10FE90000EFA32001721A0B2FCF709FA320018213D
:10FEA000A0B2FCF704FA3200604E1921A0B2FCF7B0
:10FEB000FEF932001721A0B2FCF7F9F9320018213F
:10FEC000A0B2FCF7F4F9641C24B2AC42DBDB70BDD9
:10FED00055482DE9F04F554C032503268046172140
:10FEE000B0B22200FCF734F922001821B0B2FCF7BE
:10FEF0002FF9761C36B24645F1DB474847494C4E50
:10FF0000B0F9000040185FF496714843444910EB83
:10FF1000D0704010894690FBF9F797373FB2380010
:10FF20000A38854218DB38000A30A84214DB320058
:10FF30001621A8B2FCF70CF932001721A8B2FCF781
:10FF400007F932001821A8B2FCF702F93200192192
:10FF5000A8B2FCF7FDF813E032001621A8B2FCF7B6
:10FF6000A6F932001721A8B2FCF7A1F93200182136
:10FF7000A8B2FCF79CF932001921A8B2FCF797F956
:10FF80006D1C2DB24545CADB264809228246BAF8C7
:10FF90000600BAF80C10091A514301F6010191FB51
:10FFA000F9F109B2002948BF002109233D00584357
:10FFB00000F6010090FBF9F0381A00B28346781879
:10FFC00000B28146093D2DB20937AF4222DB032D35
:10FFD0001CDB45451ADA5D4504DBA94502DBBAF8AE
:10FFE0000C0098B932001721A8B2FCF760F9320072
:10FFF0001821A8B2FCF75BF922001721A8B2FCF780
:020000040801F1
:1000000056F922001821A8B2FCF751F96D1C2DB247
:10001000AF42DCDABDE8F08F2C190020FEEFFFFFC5
:1000200002100000041A00202B0100001CEF000049
:100030001E07000070B51400BDF910601D004B19BB
:100040005B1E1BB20A000119491E09B2FFF78CFBA7
:1000500000206C43012C09DA0AE09C49B2B2401C32
:100060000A60994A202142F804191160A042F4DB89
:100070009849EF2300220020FFF776FB70BD0000B7
:100080002DE9F04F904C914E83B08046BDF9300081
:10009000ADF80020ADF8023001B489469B1E1BB2BA
:1000A000921E12B2491C09B24046401C00B2FFF732
:1000B000C1FFBDF90410404647464018801E02901B
:1000C000BDF906104846BF1C4018ADF80C0080482A
:1000D0003FB22025824648488346029801B08742B5
:1000E0001EDABDF8080059464018ADF80A00494626
:1000F00089B2B8B2FFF764FBC6F800B02560CAF851
:100100000050BDF80A10B8B27F1CFFF759FBC6F8C3
:1001100000B02560CAF8005001983FB28742E6DB84
:10012000BDF9021048464F464018801E0190BDF9A7
:1001300000104046BF1C4018ADF8020001983FB2C5
:1001400087421EDABDF8020059464018ADF800009B
:10015000B9B2404680B2FFF733FBC6F800B0256065
:10016000CAF80050BDF80000B9B27F1CFFF728FBA9
:10017000C6F800B02560CAF8005001983FB2874227
:10018000E6DB1E4F4046401CADF80000BDF8000005
:1001900009F20108414689B2FFF712FBC6F800B028
:1001A0002560CAF80050BDF80200414689B2C01966
:1001B000814680B2FFF704FBC6F800B02560CAF89C
:1001C0000050BDF80800C719BDF80000B9B2FFF72C
:1001D000F7FAC6F800B02560CAF80050B9B2484630
:1001E00080B2FFF7EDFAC6F800B02560CAF80050FB
:1001F00003B0BDE8F08F00BFFFFF0000FEFF00006E
:100200002DE9F04F90460A0099460B0031490D3315
:100210001BB2FFF7A9FA09980078002846D02A4CAB
:100220002A4D002000212026099A1278222A08D37C
:10023000224B234910EBC2021B681B6A13EB4202DC
:10024000515A00221F4B1B889B46214B4F074F469C
:1002500004D5002F0CBF47465F4603E0002F0CBFBC
:100260005F464746BFB22F6026601E6009044914EE
:10027000521C0C2AE6DB4A46002A0CBF5A4642466C
:1002800092B22A6026601E604A46002A0CBF5A4677
:10029000424692B22A6026601E60401C0828C3DBDA
:1002A0000998401C099000780028B8D10949EF232B
:1002B00000220020FFF758FABDE8F08F543A0020E2
:1002C000E0FDFFFFAE3A0020141401400C1801407D
:1002D000101401403F01000001005FF47A72904267
:1002E0003EBF0A2091FBF0F07047520090423EBFA3
:1002F0000F48081870470F4A904204D20E48081859
:100300000A21484370475FF47A62904204D20B4856
:100310000818642148437047094A904205D20948A9
:1003200008185FF47A71484370470748704700BF68
:1003300018FCFFFFB80B000030F8FFFF48F4FFFF88
:100340008813000060F0FFFF40420F002DE9F04EDF
:100350008B4C8C4E84B025008BA0814615F8480F3D
:10036000B0B100202870B4F91E0010B95FF4FC6130
:1003700000E01F21484601B4B4F90000052200FB4B
:100380000260002200F25033002001F007FA01B0B1
:100390007E4882466878A8B1002068707C48007862
:1003A00000280CBF51461F21484601B4B4F9020091
:1003B0000A2200FB0260002200F27013022001F00A
:1003C000EDF901B0A87880B10020A870484601B4CA
:1003D000B4F904000A21002200FB01606D4900F21B
:1003E0003023032001F0DAF901B06B4FE878B0B1A7
:1003F0000020E870787D032811D1B4F90610380088
:1004000018307839FCF72EFA002001B43B001A337B
:100410003200D4325146092001F0C0F901B02879E8
:10042000002800F0DD80B4F9081000222A715B4A30
:10043000C8B2127872B95A4A1278002A00F087803E
:10044000052807D20428C0F08280564A1268002A84
:1004500000F07D800100082900F28480DFE801F0CF
:10046000051B5A2D435A5A5A5A004F480323032258
:10047000016838001830FCF76FF8387E3B001A33FB
:10048000002216EB800000F2243001B45146042013
:1004900001F084F965E04548032303220168380030
:1004A0001830FCF759F842A001B43B001A3300227F
:1004B0005146042001F072F953E03A480023032228
:1004C000016838001830FCF747F8387E3B001A33D3
:1004D000002216EB400000F2343001B451460420F3
:1004E00001F05CF93DE03348002303220168380045
:1004F0001830FCF731F8387E03213B001A3300FB3B
:1005000001600022514600F2183001B4042001F0CD
:1005100045F926E0B4F902100429ACBF06230323F1
:100520002149032251F8201038001830FCF7B8F8A0
:10053000387E03213B001A3300FB01600022514644
:1005400000F20C3001B4042001F028F909E048461B
:1005500001B41948002250F831305146042001F00E
:100560001DF901B0787A58B3F87948BBB4F908009E
:10057000B979C0B2814221D000F0E2FF20E000BF93
:1005800010190020E03E010800000000FFFF0000FD
:10059000191A0020FF0700006C180020171A00200D
:1005A000181A0020301A0020241A0020281A0020CF
:1005B00025000000341A00208845010800F09EFE46
:1005C000787D04280CD1AE49484601B4B4F908003E
:1005D00051F8303000225146092001F0DFF801B017
:1005E000687988B100206871B4F90A00494602B4FC
:1005F000002216EB800116EB400001F23C338189AA
:10060000052001F0CBF801B0E87C08B30020E874C5
:10061000B4F92600B4F9061003230322411AB4F9F1
:10062000020016EB80008069414338001830FCF767
:1006300037F8387E03213B001A3300FB01609149F3
:1006400091A200F20C3001B4062001F0A7F801B02D
:10065000A87908B30020A871787D06281CD1B4F9C8
:100660000200B4F90C100323032216EB800080690A
:10067000414338001830FBF76FFF387E03213B0001
:100680001A3300FB016081A2514600F20C3001B424
:10069000092001F083F801B0E879A8B17C4800781E
:1006A00000280CBF40F2FF711F210020E871B4F94F
:1006B0000E00002814BF77A377A3484601B4002298
:1006C000012001F06BF801B0287AA0B10020287257
:1006D000787D08280FD1B4F91000002819BF3346DF
:1006E000E4333346DC33484601B400225146092046
:1006F00001F054F801B0200088300090A87DF0B1DE
:100700000020A875787D162819D1B4F92C1000980E
:1007100089B2FCF7D1F8B4F92C107222022089B208
:10072000FCF77AFD00280CBF1F2151463000F03045
:1007300001B4019B59A2092001F030F801B0287FD3
:10074000F0B100202877787D1C2819D1B4F9381031
:10075000009889B2FCF7B0F8B4F938107222012081
:1007600089B2FCF759FD00280CBF1F21514630000B
:10077000F83001B4019B49A2092001F00FF801B043
:10078000687E88B100206876787D19280CD101A98F
:100790000120FDF793F8002001B402AB40A25146BE
:1007A000092000F0FBFF01B0A87A88B10020A872F0
:1007B000787D0A280CD101A90120FDF77FF80020DF
:1007C00001B402AB36A25146092000F0E7FF01B0A8
:1007D000687D98B100206875787D15280ED1387B2A
:1007E00000280CBF06F2641306F20013484601B459
:1007F00000225146092000F0D1FF01B0E87D06F249
:10080000141928B30020E875787D172820D1B4F991
:100810002E10A1B1009889B2FCF74EF8B4F92E1051
:100820007222002089B2FCF7F7FC00280CBF1F21C0
:10083000514606F20C1001B4019B18A204E00020FE
:1008400001B44B4615A25146092000F0A7FF01B0A4
:10085000287EA0B300202876787D18282FD1B4F9FF
:10086000300018B94B460EA201B423E05FF0FF310F
:10087000884217D1002001B406F21C1308A219E027
:1008800088450108FF070000547200005B53000018
:10089000B33A00205F0000005E000000530000003B
:1008A0004C00000001A90020FDF708F8002001B469
:1008B00002ABE5A25146092000F070FF01B0E87AD2
:1008C000002834D0B4F9160080B2FFF705FD814648
:1008D0000020E872B4F93C10484689B2FEF728FEC1
:1008E000787D0B2823D15FF47A70002309FB00F197
:1008F000032238001830FBF72FFE387E3B001A33F6
:10090000D2A216EB800000F2243001B45146092037
:1009100000F044FFB4F93A003B001A33401CC0B267
:1009200001B401225146092000F0F4FE02B0A87F74
:10093000A8B10020A877787D1E2810D1B4F93C100A
:1009400038001830FBF78EFFC1A001B43B001A330A
:1009500006F224125146092000F020FF01B0287B46
:10096000002834D000202873787D0C282FD1B4F9CA
:1009700004000921032290FBF1F1C9B2894604B4B5
:10098000B4F91810002301F66B72B4F91C10521A56
:10099000092103F045F9C0B2110016EB8000C06FC9
:1009A00004BC414338001830FBF77AFE387E4946D4
:1009B0003B00401803211A3300FB0160A5A25146F9
:1009C00000F2183001B4092000F0E8FE01B0687BA5
:1009D000002834D000206873787D0D282FD1B4F919
:1009E00004000921032290FBF1F1C9B2894604B445
:1009F000B4F91A10002301F66B72B4F91C10521AE4
:100A0000092103F00DF9C0B2110016EB8000C06F90
:100A100004BC414338001830FBF742FE387E49469B
:100A20003B00401803211A3300FB01608AA25146A3
:100A300000F2183001B4092000F0B0FE01B0687A6D
:100A400090B100206872787D09280DD1002001B492
:100A5000B4F912000022514614EB800050F8803F98
:100A6000092000F09BFE01B004F2680999F800002B
:100A700090B1002089F80000787D20280CD100205A
:100A800001B4B4F9400075A2514614EB8000836FA5
:100A9000092000F083FE01B099F8030090B1002016
:100AA00089F80300787D23280CD1002001B4B4F923
:100AB00046000022514617EB8000036D092000F02C
:100AC0006DFE01B0A87B002833D00020A873787D8C
:100AD0000E282ED1B4F904B0614909209BFBF0F037
:100AE000C0B20090032204B4B4F91C0000234218E1
:100AF0005846092103F094F8C0B216EB8000C06F8D
:100B00004243110004BC38001830FBF7C9FD387EA1
:100B100000993B001A33C9B24018032151A200FBCF
:100B20000160514600F2183001B4092000F036FE91
:100B300001B099F80100D8B1002089F80100787D52
:100B4000212815D1B4F9420047494018192190FBDA
:100B5000F1F138001830FBF785FE002001B43B00AE
:100B60001A3306F22C125146092000F017FE01B08C
:100B700099F80200B8B1002089F80200787D222897
:100B800011D1B4F9441038001830C839FBF76AFEA7
:100B9000002001B43B001A3306F2341251460920FA
:100BA00000F0FCFD01B0287C00282FD0B4F904002F
:100BB0000921032290FBF1F1C9B289460021297471
:100BC00004B4B4F91A10B4F918200023521A0921F8
:100BD00003F026F8C0B2110016EB8000C06F04BC11
:100BE000414338001830FBF7B7FC387E49463B00DC
:100BF000401803211A3300FB0160E949E9A200F221
:100C0000183001B4082000F0C9FD01B0A87E00280A
:100C10003CD00020A876787D1A2837D1B4F902009C
:100C200080B2002804D0401E032190FBF1F080B276
:100C3000DD4A14EB400136F81000B1F96C10514355
:100C400091FBF0F112E000BF4C00000046000000F4
:100C50002500000054320000543100005072690039
:100C6000FEEFFFFF54500000C0F9FFFF09B238004B
:100C70001830FBF7C1FDCDA001B43B001A3306F2DA
:100C80003C125146092000F089FD01B0E87EA8B170
:100C90000020E876787D1B2810D1B4F93610380092
:100CA0001830FBF7DFFD002001B43B001A3306F2D9
:100CB00044125146092000F071FD01B0BCA08146EC
:100CC000687C002849D000206874787D112824D1E0
:100CD000B4F92200B4F9061003230322401AB4F930
:100CE0004210401A10F5C861B4F9020016EB8000FA
:100CF0008069414338001830FBF7D2FC387E03216D
:100D00003B001A3300FB0160AAA2514600F20C30EE
:100D100001B4092000F042FD01B0B4F92400B4F997
:100D2000221003230322411AB4F9020016EB8000BB
:100D30008069414338001830FBF70EFC387E0321F0
:100D40003B001A3300FB01604A46514600F20C306A
:100D500001B4072000F022FD01B0A87C002849D092
:100D60000020A874787D122824D1B4F92400B4F9A5
:100D7000061003230322401AB4F94210401A10F55A
:100D8000C861B4F9020016EB800080694143380065
:100D90001830FBF785FC387E03213B001A3300FB3B
:100DA000016085A2514600F20C3001B4092000F028
:100DB000F5FC01B0B4F92400B4F922100323032296
:100DC000411AB4F9020016EB8000806941433800F3
:100DD0001830FBF7C1FB387E03213B001A3300FBC0
:100DE00001604A46514600F20C3001B4072000F081
:100DF000D5FC01B0287D002800F0CE806F4900208E
:100E00002875B4F91C0040183885012189465FF423
:100E1000967180B2884201D3398510E0022802D24F
:100E2000A7F828900BE0397C01B10121B64D2A00CA
:100E3000FEF76AFF388D2A000021FEF7DDFF787D7E
:100E40000E2802D1FFF744F801E0FFF719F8864DAC
:100E5000CF4AB4F90600B4F942300021C018401955
:100E600080B2FEF783FFF87B00280CBF0021012130
:100E7000A74EB4F91A00320080B2FEF745FFB87BE6
:100E800000280CBF00210121B4F91800320080B203
:100E9000FEF73AFFB4F91A003200002180B2FEF7E3
:100EA000ABFFB4F918003200002180B2FEF7A4FFB6
:100EB000B87C00280CBF00210121B4F924003200C5
:100EC00080B2FEF7EBFE787C00280CBF00210121E8
:100ED000B4F92200320080B2FEF7E0FEB4F924003B
:100EE0003200002180B2FEF741FFB4F92200320047
:100EF0005E4E002180B2FEF739FFF87C88B9B4F964
:100F00002600B4F9423032000021C018401980B2E6
:100F1000FEF78EFEB4F92600B4F94230320000210B
:100F200035E0787B002837D1B4F92600B4F90C30CD
:100F300032000021C018B4F94230C018401980B204
:100F4000FEF776FEB4F92600B4F90C303200002129
:100F5000C01AB4F94230C018401980B2FEF768FEDA
:100F6000B4F92600B4F90C3032000021C018B4F9ED
:100F70004230C018401980B2FEF7F8FEB4F92600DE
:100F8000B4F90C3032000021C01AB4F94230C01854
:100F9000401980B2FEF7EAFE04B0BDE8F08E00BF53
:100FA000FF0700005B540000102700002500000030
:100FB0005B560000563200005631000095F00000EC
:100FC00070B5294C514D294EB5F92600B5F942307E
:100FD00032000121C018001980B2FEF729FEB5F9D0
:100FE0002600B5F9423032000121C018001980B244
:100FF000FEF7BCFEB5F92600B5F90C303200012130
:10100000C018B5F94230C018001980B2FEF7AEFE24
:10101000B5F92600B5F90C3032000121C01AB5F936
:101020004230C018001980B2FEF7A0FEB5F92600C4
:10103000B5F90C3032000121C018B5F94230C018A2
:10104000001980B2FEF7F4FDB5F92600B5F90C30B1
:1010500032000121C01AB5F94230C018001980B21F
:10106000FEF7E6FD70BD0000C0F90000308700000B
:1010700030B5244C244DFFF7A3FF208D2A00012119
:10108000FEF742FE208D214C2A00214D0121FEF762
:10109000B3FEB4F91A002A00012180B2FEF7ACFEBB
:1010A000B4F91A002A00012180B2FEF72DFEB4F92E
:1010B00018002A00012180B2FEF79EFEB4F9180044
:1010C0002A00012180B2FEF71FFEB4F924002A0095
:1010D000012180B2FEF74AFEB4F924002A00012162
:1010E00080B2FEF7DBFDB4F922002A00012180B2B4
:1010F000FEF73CFEB4F922002A00012180B2FEF77F
:10110000CDFD30BD6C1800201E0700001019002016
:101110001CEF000030B500241425764A20000C2175
:10112000002341435158074A641C02B4CA2100FB02
:101130001511054809B2FFF763F801B0092CECD38B
:1011400030BD0000FF0700002F0100000E4810B561
:1011500000240470FEF7D6FB0DE00C490C4B096827
:1011600011EB440010F58B60427801782000641C7C
:10117000FEF7D6FCA4B25FF496718C42EDD3BDE8C5
:101180001040FDF76BBB00BF75180020583A0020D7
:1011900080E7000057482DE9F04BE24C0C218046D7
:1011A000207D00FB0180007A2072E071A07101E0D7
:1011B0006D1EE5715048E579814625B119EBC500F2
:1011C00000790128F4D1207A262807D219EBC00132
:1011D000097B012902D0401C2072F4E70021217113
:1011E000A8420ED3280059F8300002F007FC2179FC
:1011F000C0B2814238BF2071207A6D1CEDB2A84286
:10120000F0D2E07910B92179093121712179257D58
:101210001426C90008312171217A2279081A122175
:1012200048431A3060716379D2F594702080D121DF
:1012300005FB16115E08891B618009B21A2903DAC1
:101240001A2100E0491E6180B4F90210CE18D92E8F
:10125000F8DA0C2605FB06852D7AA571B74D20B46A
:10126000FEF70EFFB4F902006179E6794518207A9D
:10127000143D2DB201B0B04234D3A079B04214BFB6
:1012800000270127300059F830003B005FF0FF32A3
:1012900001B48346B4F900002900001D00B2FEF736
:1012A000AFFF01B0012F16D1584602F0A7FB5FF047
:1012B000FF3102B4B4F900702179C0B20E230839AD
:1012C000B1EBC00212B2290017EBC000001D00B242
:1012D000FEF7B0FE01B0207A123D2DB2761CF6B2B8
:1012E000B042CAD201206072E07908B900F006F875
:1012F000BDE8F08B00180020884501082DE9F04F6B
:10130000884C81B0B4F900002179401861794538E2
:1013100000B28046283000B28146B4F90200451878
:10132000E079143D2DB28246207A5045C0F0F3801A
:10133000A079504514BF00260126E1795046401A95
:101340007949C0B28B46DBF80C10009177490978D7
:1013500069B977490978002900F0B380052806D2D9
:101360000328C0F0AE800099002900F0AA8047460B
:1013700008370100082900F2C480DFE801F00524E5
:101380007C3E5C7C7C7C7C00DBF800100323032229
:1013900020001830FBF7E0F820001A3001B43300C9
:1013A0005FF0FF32290038B2FEF72AFF207E624943
:1013B00033005FF0FF3211EB800000F2243001B403
:1013C000290048469AE0DBF804100323032220009A
:1013D0001830FBF7C1F820001A3001B433005FF079
:1013E000FF32290038B2FEF70BFF52A001B43300E0
:1013F0005FF0FF322900484680E000990023032275
:1014000020001830FBF7A8F820001A3001B4330090
:101410005FF0FF32290038B2FEF7F2FE207E464927
:1014200033005FF0FF3211EB400000F2343001B4C2
:101430002900484662E0DBF8101000230322200058
:101440001830FBF789F820001A3001B433005FF040
:10145000FF32290038B2FEF7D3FE207E364A032140
:10146000330000FB01205FF0FF32290000F218304A
:1014700001B4484642E02949B1F900100429ACBF43
:10148000062303235BF82010032220001830FBF70B
:1014900007F920001A3001B433005FF0FF32290051
:1014A0004046FEF7ADFE207E234A0321330000FBB9
:1014B00001205FF0FF32290000F20C3001B44846F1
:1014C0001CE0300001D11D4801E05FF0FF300E2329
:1014D00001B42179B4F900004018001F4146421AB6
:1014E00012B229004046FEF7A5FD0DA001B433005D
:1014F0005FF0FF3229004046103000B2FEF780FE58
:1015000002B05046401CC0B28246207A123D2DB235
:101510005045BFF40DAF01B0BDE8F08F12190020A7
:101520002A2A00006C180020241A0020171A002014
:10153000181A002025000000E03E01080C6300009E
:10154000F0B56F4C0500FF2D207AE17901D08D4276
:1015500001D2050002E0A84238BF0D466C4FA079C9
:10156000B4F902206379091A57F83000D21812230F
:1015700001B401FB03260023E05E143E36B25FF0A7
:10158000FF323100001D00B2FEF73AFEA07957F895
:10159000300002F033FAC149C0B20E2302B42179FF
:1015A0000839B1EBC0023100B4F9006012B216EB99
:1015B000C000001D00B2FEF73DFDB4F902106279D3
:1015C000A571A0798918E2791223121A57F8300010
:1015D00002FB031501B4B4F90000143D2DB2012340
:1015E0005FF0FF322900001D00B2FEF709FEA0796E
:1015F00057F8300002F002FA5FF0FF3102B42179AF
:10160000C0B20E230839B1EBC0022900B4F9005072
:1016100012B215EBC000001D00B2FEF70BFDE07921
:1016200004B010B90C48A1790180217D354BA07917
:101630000C2201FB023100220872B5A102B457F856
:101640003030D249092000F0A9F8A07917EBC0008A
:101650004079607501B0F0BD181900202DE9F04106
:101660000400FF2C01D1082402E0092C28BF00242B
:10167000234D244F244E287D244A0C21002341432E
:1016800079589446CA2202B4142100FB1121624603
:101690003000FEF7B5FD0C20012304FB00785FF05D
:1016A000FF32CA21D8F8000001B4142004FB101145
:1016B00009B23000FEF7A4FDB4492C75144C94A077
:1016C00001B498F8080054F830300022092000F0E6
:1016D00065F8287D0C2100FB0171097A14EBC1012A
:1016E00049796975A97D03B039B9052801D0062863
:1016F00003D100F03FFC0120A875BDE8F081000097
:101700006C180020001800202F010000FF070000C7
:10171000884501082DE9F0471F4D81B000242E783F
:101720009A466B4688461E706E7891469DF8242036
:10173000010000205E704B4633B14846C000001DDA
:1017400080B201E0641CA4B214EB0A031D7845B119
:101750003AB1302DF6D33A2DF4D2521ED2B2002A2D
:10176000F0D12A46A2B14C4B8DF80020062210EB96
:10177000C40001FB0235694602B469882D88012343
:10178000424612B209B2281800B2FEF739FD01B084
:1017900001B0BDE8F08700BF3C4801082DE9F04FDB
:1017A00088469146050000279A46BB46484618B130
:1017B00002F024F9C7003FB2504602F01FF9C400FE
:1017C000099824B220B102F019F9C004001483462C
:1017D0003149062005FB001559462879C01B001B1E
:1017E000461A36B2484620B301B4698828880023D7
:1017F000424612B209B200B2FEF702FD361F36B2FF
:10180000002E01B005D5083F3FB2083636B2002E93
:10181000F9D422480E23042201B4698809B28C4607
:101820002988C819614600B2FEF704FC3F1D3FB28B
:1018300001B0504601B469880023424609B28C4683
:10184000298812B2C819614600B2FEF7D9FC0A987D
:1018500001B070B1002301B46988424612B209B2E6
:101860008C462988C9190819614600B2FEF7C8FCE0
:1018700001B0012E0EDB09480E23320001B4698845
:10188000288809B2C01900195C46001900B2FEF799
:10189000D1FB01B0BDE8F08FC04601080C63000029
:1018A000502200B50E215043642290FBF2F080B22A
:1018B00003B436480323F0221F21FDF7F1FF02B0E5
:1018C00000BD00002DE9F0438046304DA64E1400C7
:1018D0008946FDF7AFFE0EA770B1FBF731F840B9AE
:1018E000220049464046FBF797FC70B180B4336B49
:1018F00004E080B4736B01E080B4B36B0022290074
:101900000920FFF74BFF01B0FF20BDE8F083000086
:101910000000000070B5CA4C0020772284F85E00F9
:10192000B4F92C10022089B2FFF7CCFF50BBB4F9F8
:101930002C10164D2600883689B23000FAF7BCFF0D
:101940001148330034A201B429000920FFF726FF13
:10195000FCF7B6F801B058B9B4F92C00834A01215C
:101960009042AEBFA185401CA08504F85E1F70BDEB
:10197000C6A001B429480022290003680920FFF706
:101980000DFF01B070BD00BFD03F0108FFFF000098
:10199000F0B5AB4C00210020012584F864101C49EF
:1019A0000A780AB90D70F0BD0870B4F938107722C2
:1019B000012089B2FFF786FF48BBB4F93810B14F58
:1019C0002600883689B23000FAF776FF11483300D6
:1019D00011A201B439000920FFF7E0FE00F01AFB64
:1019E00001B050B9B4F9380060498842AEBF2587CC
:1019F000401C208704F8645FF0BDA4A001B4074830
:101A00000022390003680920FFF7C8FE01B0F0BDCD
:101A10001A1A0020D83F010853000000981800202F
:101A2000154870B583B00021017072220120FFF7C4
:101A300049FFF0B9934C69464B4D0120FBF73EFF3F
:101A4000002001B401AB24A221000920FFF7A6FE6B
:101A50008EA6002000F04CFC01B0002840B401D05C
:101A60006B6C00E0EB6C002221000920FFF796FE72
:101A700001B003B070BD00BF71190020154870B5EA
:101A800083B00021017072220120FFF71BFFF0B923
:101A90007C4C6946344D0120FBF710FF002001B457
:101AA00001AB0DA221000920FFF778FE77A60120E7
:101AB00000F01EFC01B0002840B401D06B6C00E0C7
:101AC000EB6C002221000920FFF768FE01B003B093
